{
  "address": "0xa3fE936088c96E2804A06b01B83DE391629Db57b",
  "abi": [
    {
      "inputs": [],
      "stateMutability": "nonpayable",
      "type": "constructor"
    },
    {
      "inputs": [
        {
          "internalType": "address",
          "name": "sender",
          "type": "address"
        },
        {
          "internalType": "uint256",
          "name": "tokenId",
          "type": "uint256"
        },
        {
          "internalType": "address",
          "name": "owner",
          "type": "address"
        }
      ],
      "name": "ERC721IncorrectOwner",
      "type": "error"
    },
    {
      "inputs": [
        {
          "internalType": "address",
          "name": "operator",
          "type": "address"
        },
        {
          "internalType": "uint256",
          "name": "tokenId",
          "type": "uint256"
        }
      ],
      "name": "ERC721InsufficientApproval",
      "type": "error"
    },
    {
      "inputs": [
        {
          "internalType": "address",
          "name": "approver",
          "type": "address"
        }
      ],
      "name": "ERC721InvalidApprover",
      "type": "error"
    },
    {
      "inputs": [
        {
          "internalType": "address",
          "name": "operator",
          "type": "address"
        }
      ],
      "name": "ERC721InvalidOperator",
      "type": "error"
    },
    {
      "inputs": [
        {
          "internalType": "address",
          "name": "owner",
          "type": "address"
        }
      ],
      "name": "ERC721InvalidOwner",
      "type": "error"
    },
    {
      "inputs": [
        {
          "internalType": "address",
          "name": "receiver",
          "type": "address"
        }
      ],
      "name": "ERC721InvalidReceiver",
      "type": "error"
    },
    {
      "inputs": [
        {
          "internalType": "address",
          "name": "sender",
          "type": "address"
        }
      ],
      "name": "ERC721InvalidSender",
      "type": "error"
    },
    {
      "inputs": [
        {
          "internalType": "uint256",
          "name": "tokenId",
          "type": "uint256"
        }
      ],
      "name": "ERC721NonexistentToken",
      "type": "error"
    },
    {
      "inputs": [],
      "name": "NotValidId",
      "type": "error"
    },
    {
      "anonymous": false,
      "inputs": [
        {
          "indexed": false,
          "internalType": "address",
          "name": "_owner",
          "type": "address"
        },
        {
          "indexed": false,
          "internalType": "uint256",
          "name": "_id",
          "type": "uint256"
        }
      ],
      "name": "AddedAiAgent",
      "type": "event"
    },
    {
      "anonymous": false,
      "inputs": [
        {
          "indexed": true,
          "internalType": "address",
          "name": "owner",
          "type": "address"
        },
        {
          "indexed": true,
          "internalType": "address",
          "name": "approved",
          "type": "address"
        },
        {
          "indexed": true,
          "internalType": "uint256",
          "name": "tokenId",
          "type": "uint256"
        }
      ],
      "name": "Approval",
      "type": "event"
    },
    {
      "anonymous": false,
      "inputs": [
        {
          "indexed": true,
          "internalType": "address",
          "name": "owner",
          "type": "address"
        },
        {
          "indexed": true,
          "internalType": "address",
          "name": "operator",
          "type": "address"
        },
        {
          "indexed": false,
          "internalType": "bool",
          "name": "approved",
          "type": "bool"
        }
      ],
      "name": "ApprovalForAll",
      "type": "event"
    },
    {
      "anonymous": false,
      "inputs": [
        {
          "indexed": false,
          "internalType": "address",
          "name": "_owner",
          "type": "address"
        },
        {
          "indexed": false,
          "internalType": "address",
          "name": "_operator",
          "type": "address"
        },
        {
          "indexed": false,
          "internalType": "uint256",
          "name": "_id",
          "type": "uint256"
        }
      ],
      "name": "Approved",
      "type": "event"
    },
    {
      "anonymous": false,
      "inputs": [
        {
          "indexed": false,
          "internalType": "address",
          "name": "_owner",
          "type": "address"
        },
        {
          "indexed": false,
          "internalType": "uint256",
          "name": "_id",
          "type": "uint256"
        }
      ],
      "name": "Burned",
      "type": "event"
    },
    {
      "anonymous": false,
      "inputs": [
        {
          "indexed": true,
          "internalType": "address",
          "name": "from",
          "type": "address"
        },
        {
          "indexed": true,
          "internalType": "address",
          "name": "to",
          "type": "address"
        },
        {
          "indexed": true,
          "internalType": "uint256",
          "name": "tokenId",
          "type": "uint256"
        }
      ],
      "name": "Transfer",
      "type": "event"
    },
    {
      "anonymous": false,
      "inputs": [
        {
          "indexed": false,
          "internalType": "address",
          "name": "_from",
          "type": "address"
        },
        {
          "indexed": false,
          "internalType": "address",
          "name": "_to",
          "type": "address"
        },
        {
          "indexed": false,
          "internalType": "uint256",
          "name": "_id",
          "type": "uint256"
        }
      ],
      "name": "Transfered",
      "type": "event"
    },
    {
      "anonymous": false,
      "inputs": [
        {
          "indexed": false,
          "internalType": "address",
          "name": "_owner",
          "type": "address"
        },
        {
          "indexed": false,
          "internalType": "uint256",
          "name": "_id",
          "type": "uint256"
        },
        {
          "indexed": false,
          "internalType": "string",
          "name": "_ipfsLink",
          "type": "string"
        }
      ],
      "name": "VersionUpdate",
      "type": "event"
    },
    {
      "stateMutability": "payable",
      "type": "fallback"
    },
    {
      "inputs": [
        {
          "internalType": "uint256",
          "name": "",
          "type": "uint256"
        }
      ],
      "name": "aiAgentStorage",
      "outputs": [
        {
          "internalType": "address",
          "name": "owner",
          "type": "address"
        },
        {
          "internalType": "string",
          "name": "ipfsLink",
          "type": "string"
        },
        {
          "internalType": "uint256",
          "name": "id",
          "type": "uint256"
        },
        {
          "internalType": "bool",
          "name": "valid",
          "type": "bool"
        }
      ],
      "stateMutability": "view",
      "type": "function"
    },
    {
      "inputs": [
        {
          "internalType": "address",
          "name": "_to",
          "type": "address"
        },
        {
          "internalType": "uint256",
          "name": "_id",
          "type": "uint256"
        }
      ],
      "name": "approve",
      "outputs": [],
      "stateMutability": "nonpayable",
      "type": "function"
    },
    {
      "inputs": [
        {
          "internalType": "address",
          "name": "_owner",
          "type": "address"
        }
      ],
      "name": "balanceOf",
      "outputs": [
        {
          "internalType": "uint256",
          "name": "",
          "type": "uint256"
        }
      ],
      "stateMutability": "view",
      "type": "function"
    },
    {
      "inputs": [
        {
          "internalType": "address",
          "name": "owner",
          "type": "address"
        }
      ],
      "name": "balances",
      "outputs": [
        {
          "internalType": "uint256",
          "name": "",
          "type": "uint256"
        }
      ],
      "stateMutability": "view",
      "type": "function"
    },
    {
      "inputs": [
        {
          "internalType": "uint256",
          "name": "_id",
          "type": "uint256"
        }
      ],
      "name": "burn",
      "outputs": [
        {
          "components": [
            {
              "internalType": "address",
              "name": "owner",
              "type": "address"
            },
            {
              "internalType": "string",
              "name": "ipfsLink",
              "type": "string"
            },
            {
              "internalType": "address[]",
              "name": "previous_owners",
              "type": "address[]"
            },
            {
              "internalType": "string[]",
              "name": "previous_versions",
              "type": "string[]"
            },
            {
              "internalType": "uint256",
              "name": "id",
              "type": "uint256"
            },
            {
              "internalType": "bool",
              "name": "valid",
              "type": "bool"
            }
          ],
          "internalType": "struct AIagentNFT.AiAgent",
          "name": "",
          "type": "tuple"
        }
      ],
      "stateMutability": "nonpayable",
      "type": "function"
    },
    {
      "inputs": [],
      "name": "getAddress",
      "outputs": [
        {
          "internalType": "address",
          "name": "",
          "type": "address"
        }
      ],
      "stateMutability": "view",
      "type": "function"
    },
    {
      "inputs": [
        {
          "internalType": "uint256",
          "name": "_id",
          "type": "uint256"
        }
      ],
      "name": "getAiAgent",
      "outputs": [
        {
          "components": [
            {
              "internalType": "address",
              "name": "owner",
              "type": "address"
            },
            {
              "internalType": "string",
              "name": "ipfsLink",
              "type": "string"
            },
            {
              "internalType": "address[]",
              "name": "previous_owners",
              "type": "address[]"
            },
            {
              "internalType": "string[]",
              "name": "previous_versions",
              "type": "string[]"
            },
            {
              "internalType": "uint256",
              "name": "id",
              "type": "uint256"
            },
            {
              "internalType": "bool",
              "name": "valid",
              "type": "bool"
            }
          ],
          "internalType": "struct AIagentNFT.AiAgent",
          "name": "",
          "type": "tuple"
        }
      ],
      "stateMutability": "view",
      "type": "function"
    },
    {
      "inputs": [],
      "name": "getAiAgentStorage",
      "outputs": [
        {
          "components": [
            {
              "internalType": "address",
              "name": "owner",
              "type": "address"
            },
            {
              "internalType": "string",
              "name": "ipfsLink",
              "type": "string"
            },
            {
              "internalType": "address[]",
              "name": "previous_owners",
              "type": "address[]"
            },
            {
              "internalType": "string[]",
              "name": "previous_versions",
              "type": "string[]"
            },
            {
              "internalType": "uint256",
              "name": "id",
              "type": "uint256"
            },
            {
              "internalType": "bool",
              "name": "valid",
              "type": "bool"
            }
          ],
          "internalType": "struct AIagentNFT.AiAgent[]",
          "name": "",
          "type": "tuple[]"
        }
      ],
      "stateMutability": "view",
      "type": "function"
    },
    {
      "inputs": [
        {
          "internalType": "uint256",
          "name": "_id",
          "type": "uint256"
        }
      ],
      "name": "getApproved",
      "outputs": [
        {
          "internalType": "address",
          "name": "",
          "type": "address"
        }
      ],
      "stateMutability": "view",
      "type": "function"
    },
    {
      "inputs": [
        {
          "internalType": "address",
          "name": "owner",
          "type": "address"
        },
        {
          "internalType": "address",
          "name": "operator",
          "type": "address"
        }
      ],
      "name": "isApprovedForAll",
      "outputs": [
        {
          "internalType": "bool",
          "name": "",
          "type": "bool"
        }
      ],
      "stateMutability": "view",
      "type": "function"
    },
    {
      "inputs": [
        {
          "internalType": "address",
          "name": "_owner",
          "type": "address"
        },
        {
          "internalType": "address",
          "name": "_spender",
          "type": "address"
        },
        {
          "internalType": "uint256",
          "name": "_id",
          "type": "uint256"
        }
      ],
      "name": "isAuthorized",
      "outputs": [
        {
          "internalType": "bool",
          "name": "",
          "type": "bool"
        }
      ],
      "stateMutability": "view",
      "type": "function"
    },
    {
      "inputs": [
        {
          "internalType": "address",
          "name": "_owner",
          "type": "address"
        },
        {
          "internalType": "uint256",
          "name": "_id",
          "type": "uint256"
        }
      ],
      "name": "isOwner",
      "outputs": [
        {
          "internalType": "bool",
          "name": "",
          "type": "bool"
        }
      ],
      "stateMutability": "view",
      "type": "function"
    },
    {
      "inputs": [
        {
          "internalType": "address",
          "name": "_owner",
          "type": "address"
        },
        {
          "internalType": "uint256",
          "name": "_id",
          "type": "uint256"
        }
      ],
      "name": "isOwnerAndValid",
      "outputs": [
        {
          "internalType": "bool",
          "name": "",
          "type": "bool"
        }
      ],
      "stateMutability": "view",
      "type": "function"
    },
    {
      "inputs": [
        {
          "internalType": "uint256",
          "name": "_id",
          "type": "uint256"
        }
      ],
      "name": "isValid",
      "outputs": [
        {
          "internalType": "bool",
          "name": "",
          "type": "bool"
        }
      ],
      "stateMutability": "view",
      "type": "function"
    },
    {
      "inputs": [],
      "name": "name",
      "outputs": [
        {
          "internalType": "string",
          "name": "",
          "type": "string"
        }
      ],
      "stateMutability": "view",
      "type": "function"
    },
    {
      "inputs": [
        {
          "internalType": "address",
          "name": "_owner",
          "type": "address"
        }
      ],
      "name": "ownedAiAgents",
      "outputs": [
        {
          "internalType": "uint256[]",
          "name": "",
          "type": "uint256[]"
        }
      ],
      "stateMutability": "view",
      "type": "function"
    },
    {
      "inputs": [
        {
          "internalType": "uint256",
          "name": "_id",
          "type": "uint256"
        }
      ],
      "name": "ownerOf",
      "outputs": [
        {
          "internalType": "address",
          "name": "",
          "type": "address"
        }
      ],
      "stateMutability": "view",
      "type": "function"
    },
    {
      "inputs": [
        {
          "internalType": "address",
          "name": "",
          "type": "address"
        },
        {
          "internalType": "uint256",
          "name": "",
          "type": "uint256"
        }
      ],
      "name": "owners",
      "outputs": [
        {
          "internalType": "uint256",
          "name": "",
          "type": "uint256"
        }
      ],
      "stateMutability": "view",
      "type": "function"
    },
    {
      "inputs": [
        {
          "internalType": "address",
          "name": "_to",
          "type": "address"
        },
        {
          "internalType": "string",
          "name": "_ipfsLink",
          "type": "string"
        }
      ],
      "name": "registerAiAgent",
      "outputs": [
        {
          "internalType": "uint256",
          "name": "",
          "type": "uint256"
        }
      ],
      "stateMutability": "nonpayable",
      "type": "function"
    },
    {
      "inputs": [
        {
          "internalType": "address",
          "name": "from",
          "type": "address"
        },
        {
          "internalType": "address",
          "name": "to",
          "type": "address"
        },
        {
          "internalType": "uint256",
          "name": "tokenId",
          "type": "uint256"
        }
      ],
      "name": "safeTransferFrom",
      "outputs": [],
      "stateMutability": "nonpayable",
      "type": "function"
    },
    {
      "inputs": [
        {
          "internalType": "address",
          "name": "_from",
          "type": "address"
        },
        {
          "internalType": "address",
          "name": "_to",
          "type": "address"
        },
        {
          "internalType": "uint256",
          "name": "_id",
          "type": "uint256"
        },
        {
          "internalType": "bytes",
          "name": "_data",
          "type": "bytes"
        }
      ],
      "name": "safeTransferFrom",
      "outputs": [],
      "stateMutability": "nonpayable",
      "type": "function"
    },
    {
      "inputs": [
        {
          "internalType": "address",
          "name": "operator",
          "type": "address"
        },
        {
          "internalType": "bool",
          "name": "approved",
          "type": "bool"
        }
      ],
      "name": "setApprovalForAll",
      "outputs": [],
      "stateMutability": "nonpayable",
      "type": "function"
    },
    {
      "inputs": [
        {
          "internalType": "bytes4",
          "name": "interfaceId",
          "type": "bytes4"
        }
      ],
      "name": "supportsInterface",
      "outputs": [
        {
          "internalType": "bool",
          "name": "",
          "type": "bool"
        }
      ],
      "stateMutability": "view",
      "type": "function"
    },
    {
      "inputs": [],
      "name": "symbol",
      "outputs": [
        {
          "internalType": "string",
          "name": "",
          "type": "string"
        }
      ],
      "stateMutability": "view",
      "type": "function"
    },
    {
      "inputs": [
        {
          "internalType": "uint256",
          "name": "id",
          "type": "uint256"
        }
      ],
      "name": "tokenApprovals",
      "outputs": [
        {
          "internalType": "address",
          "name": "",
          "type": "address"
        }
      ],
      "stateMutability": "view",
      "type": "function"
    },
    {
      "inputs": [
        {
          "internalType": "uint256",
          "name": "_id",
          "type": "uint256"
        }
      ],
      "name": "tokenURI",
      "outputs": [
        {
          "internalType": "string",
          "name": "",
          "type": "string"
        }
      ],
      "stateMutability": "view",
      "type": "function"
    },
    {
      "inputs": [
        {
          "internalType": "address",
          "name": "_from",
          "type": "address"
        },
        {
          "internalType": "address",
          "name": "_to",
          "type": "address"
        },
        {
          "internalType": "uint256",
          "name": "_id",
          "type": "uint256"
        }
      ],
      "name": "transferFrom",
      "outputs": [],
      "stateMutability": "nonpayable",
      "type": "function"
    },
    {
      "inputs": [
        {
          "internalType": "uint256",
          "name": "_id",
          "type": "uint256"
        },
        {
          "internalType": "string",
          "name": "_newIpfsLink",
          "type": "string"
        }
      ],
      "name": "updateVersion",
      "outputs": [
        {
          "components": [
            {
              "internalType": "address",
              "name": "owner",
              "type": "address"
            },
            {
              "internalType": "string",
              "name": "ipfsLink",
              "type": "string"
            },
            {
              "internalType": "address[]",
              "name": "previous_owners",
              "type": "address[]"
            },
            {
              "internalType": "string[]",
              "name": "previous_versions",
              "type": "string[]"
            },
            {
              "internalType": "uint256",
              "name": "id",
              "type": "uint256"
            },
            {
              "internalType": "bool",
              "name": "valid",
              "type": "bool"
            }
          ],
          "internalType": "struct AIagentNFT.AiAgent",
          "name": "",
          "type": "tuple"
        }
      ],
      "stateMutability": "nonpayable",
      "type": "function"
    },
    {
      "stateMutability": "payable",
      "type": "receive"
    }
  ],
  "transactionHash": "0x9e70b20d1714b0d015048a7fc88a71483681191d3d70c830b5085e47b67b4b66",
  "args": [],
  "numDeployments": 1,
  "solcInputHash": "32b6e7e43329cc3faefac09598c59314",
  "bytecode": "0x60806040523480156200001157600080fd5b506040518060400160405280600a81526020016910525859d95b9d13919560b21b81525060405180604001604052806005815260200164105253919560da1b815250816000908162000064919062000121565b50600162000073828262000121565b505050620001ed565b634e487b7160e01b600052604160045260246000fd5b600181811c90821680620000a757607f821691505b602082108103620000c857634e487b7160e01b600052602260045260246000fd5b50919050565b601f8211156200011c57600081815260208120601f850160051c81016020861015620000f75750805b601f850160051c820191505b81811015620001185782815560010162000103565b5050505b505050565b81516001600160401b038111156200013d576200013d6200007c565b62000155816200014e845462000092565b84620000ce565b602080601f8311600181146200018d5760008415620001745750858301515b600019600386901b1c1916600185901b17855562000118565b600085815260208120601f198616915b82811015620001be578886015182559484019460019091019084016200019d565b5085821015620001dd5787850151600019600388901b60f8161c191681555b5050505050600190811b01905550565b612ba280620001fd6000396000f3fe6080604052600436106101a35760003560e01c806383b8f939116100e0578063b88d4fde11610084578063e327a6af11610061578063e327a6af14610513578063e985e9c514610533578063ee74b66d14610553578063f577a5001461058057005b8063b88d4fde146104b3578063c87b56dd146104d3578063d00b4e61146104f357005b80639b3e2787116100bd5780639b3e27871461041d578063a22cb4651461043d578063acdeb5b91461045d578063af0c98e61461049357005b806383b8f939146103c85780638df53acc146103e857806395d89b411461040857005b806342842e0e116101475780636352211e116101245780636352211e1461033657806370a082311461035657806370e93e77146103765780638200c60c1461039857005b806342842e0e146102c957806342966c68146102e957806356bd2ba21461031657005b8063095ea7b311610180578063095ea7b31461023b57806323b872dd1461025b57806327e235e31461027b57806338cc4831146102b657005b806301ffc9a7146101ac57806306fdde03146101e1578063081812fc1461020357005b366101aa57005b005b3480156101b857600080fd5b506101cc6101c7366004612316565b6105a0565b60405190151581526020015b60405180910390f35b3480156101ed57600080fd5b506101f66105f2565b6040516101d8919061238d565b34801561020f57600080fd5b5061022361021e3660046123a0565b610684565b6040516001600160a01b0390911681526020016101d8565b34801561024757600080fd5b506101aa6102563660046123d5565b610706565b34801561026757600080fd5b506101aa6102763660046123ff565b6108ee565b34801561028757600080fd5b506102a861029636600461243b565b60096020526000908152604090205481565b6040519081526020016101d8565b3480156102c257600080fd5b5030610223565b3480156102d557600080fd5b506101aa6102e43660046123ff565b6109e8565b3480156102f557600080fd5b506103096103043660046123a0565b610a08565b6040516101d8919061255b565b34801561032257600080fd5b5061030961033136600461261a565b610d0a565b34801561034257600080fd5b506102236103513660046123a0565b61112c565b34801561036257600080fd5b506102a861037136600461243b565b6111b8565b34801561038257600080fd5b5061038b6111fe565b6040516101d89190612661565b3480156103a457600080fd5b506103b86103b33660046123a0565b61145f565b6040516101d894939291906126c3565b3480156103d457600080fd5b506102a86103e33660046126ff565b611531565b3480156103f457600080fd5b506103096104033660046123a0565b6115f0565b34801561041457600080fd5b506101f661187e565b34801561042957600080fd5b506102a86104383660046123d5565b61188d565b34801561044957600080fd5b506101aa610458366004612737565b6118be565b34801561046957600080fd5b506102236104783660046123a0565b600a602052600090815260409020546001600160a01b031681565b34801561049f57600080fd5b506101cc6104ae3660046123ff565b6118cd565b3480156104bf57600080fd5b506101aa6104ce366004612773565b611920565b3480156104df57600080fd5b506101f66104ee3660046123a0565b611931565b3480156104ff57600080fd5b506101cc61050e3660046123d5565b611a3e565b34801561051f57600080fd5b506101cc61052e3660046123d5565b611aba565b34801561053f57600080fd5b506101cc61054e3660046127ef565b611af3565b34801561055f57600080fd5b5061057361056e36600461243b565b611b21565b6040516101d89190612822565b34801561058c57600080fd5b506101cc61059b3660046123a0565b611bb4565b60006001600160e01b031982166380ac58cd60e01b14806105d157506001600160e01b03198216635b5e139f60e01b145b806105ec57506301ffc9a760e01b6001600160e01b03198316145b92915050565b60606000805461060190612866565b80601f016020809104026020016040519081016040528092919081815260200182805461062d90612866565b801561067a5780601f1061064f5761010080835404028352916020019161067a565b820191906000526020600020905b81548152906001019060200180831161065d57829003601f168201915b5050505050905090565b6007546000908290811080156106c05750600781815481106106a8576106a861289a565b600091825260209091206005600690920201015460ff165b6106e55760405162461bcd60e51b81526004016106dc906128b0565b60405180910390fd5b6000838152600a60205260409020546001600160a01b031691505b50919050565b816001600160a01b03811661072d5760405162461bcd60e51b81526004016106dc9061290d565b338061074b5760405162461bcd60e51b81526004016106dc9061290d565b60075483908110801561078457506007818154811061076c5761076c61289a565b600091825260209091206005600690920201015460ff165b6107a05760405162461bcd60e51b81526004016106dc906128b0565b6107a98461112c565b6001600160a01b0316336001600160a01b031614806107d557506107d56107cf8561112c565b33611af3565b61086d5760405162461bcd60e51b815260206004820152605960248201527f4f6e6c7920746865206f776e6572206f66206964206f7220617070726f76656460448201527f20666f7220616c6c206f70657261746f722063616e20617070726f766520746860648201527f65206164647265737320666f72207468697320746f6b656e2100000000000000608482015260a4016106dc565b6000848152600a6020526040902080546001600160a01b0319166001600160a01b0387161790557f80da462ebfbe41cfc9bc015e7a9a3c7a2a73dbccede72d8ceb583606c27f8f906108be8561112c565b604080516001600160a01b0392831681529188166020830152810186905260600160405180910390a15050505050565b816001600160a01b0381166109155760405162461bcd60e51b81526004016106dc9061290d565b836001600160a01b0316836001600160a01b03160361098c5760405162461bcd60e51b815260206004820152602d60248201527f46726f6d20616464726573732063616e2774206265207468652073616d65206160448201526c7320746f20616464726573732160981b60648201526084016106dc565b610997848484611c0b565b604080516001600160a01b038087168252851660208201529081018390527f8930ac7bcb101f94c05b13845098ae74383bfb9e348e73061b730040945cbb829060600160405180910390a150505050565b610a0383838360405180602001604052806000815250611920565b505050565b610a10612173565b600754829081108015610a49575060078181548110610a3157610a3161289a565b600091825260209091206005600690920201015460ff165b610a655760405162461bcd60e51b81526004016106dc906128b0565b8233610a708261112c565b6001600160a01b031614610a965760405162461bcd60e51b81526004016106dc90612954565b610a9f84611e34565b60408051338152602081018690527f696de425f79f4a40bc6d2122ca50507f0efbeabbff86a84871b7196ab8ea8df7910160405180910390a160078481548110610aeb57610aeb61289a565b60009182526020918290206040805160c0810190915260069092020180546001600160a01b031682526001810180549293919291840191610b2b90612866565b80601f0160208091040260200160405190810160405280929190818152602001828054610b5790612866565b8015610ba45780601f10610b7957610100808354040283529160200191610ba4565b820191906000526020600020905b815481529060010190602001808311610b8757829003601f168201915b5050505050815260200160028201805480602002602001604051908101604052809291908181526020018280548015610c0657602002820191906000526020600020905b81546001600160a01b03168152600190910190602001808311610be8575b5050505050815260200160038201805480602002602001604051908101604052809291908181526020016000905b82821015610ce0578382906000526020600020018054610c5390612866565b80601f0160208091040260200160405190810160405280929190818152602001828054610c7f90612866565b8015610ccc5780601f10610ca157610100808354040283529160200191610ccc565b820191906000526020600020905b815481529060010190602001808311610caf57829003601f168201915b505050505081526020019060010190610c34565b505050908252506004820154602082015260059091015460ff161515604090910152949350505050565b610d12612173565b600754839081108015610d4b575060078181548110610d3357610d3361289a565b600091825260209091206005600690920201015460ff165b610d675760405162461bcd60e51b81526004016106dc906128b0565b8333610d728261112c565b6001600160a01b031614610d985760405162461bcd60e51b81526004016106dc90612954565b600060078681548110610dad57610dad61289a565b90600052602060002090600602016001018054610dc990612866565b80601f0160208091040260200160405190810160405280929190818152602001828054610df590612866565b8015610e425780601f10610e1757610100808354040283529160200191610e42565b820191906000526020600020905b815481529060010190602001808311610e2557829003601f168201915b5050505050905060078681548110610e5c57610e5c61289a565b600091825260208083206003600690930201919091018054600181018255908352912001610e8a82826129f3565b508460078781548110610e9f57610e9f61289a565b90600052602060002090600602016001019081610ebc91906129f3565b507fa5241e763c7c94a761c9fbc6eca4a7f29912626d01742e6a43d6f620b273cae8338787604051610ef093929190612ab3565b60405180910390a160078681548110610f0b57610f0b61289a565b60009182526020918290206040805160c0810190915260069092020180546001600160a01b031682526001810180549293919291840191610f4b90612866565b80601f0160208091040260200160405190810160405280929190818152602001828054610f7790612866565b8015610fc45780601f10610f9957610100808354040283529160200191610fc4565b820191906000526020600020905b815481529060010190602001808311610fa757829003601f168201915b505050505081526020016002820180548060200260200160405190810160405280929190818152602001828054801561102657602002820191906000526020600020905b81546001600160a01b03168152600190910190602001808311611008575b5050505050815260200160038201805480602002602001604051908101604052809291908181526020016000905b8282101561110057838290600052602060002001805461107390612866565b80601f016020809104026020016040519081016040528092919081815260200182805461109f90612866565b80156110ec5780601f106110c1576101008083540402835291602001916110ec565b820191906000526020600020905b8154815290600101906020018083116110cf57829003601f168201915b505050505081526020019060010190611054565b505050908252506004820154602082015260059091015460ff1615156040909101529695505050505050565b6007546000908290811080156111685750600781815481106111505761115061289a565b600091825260209091206005600690920201015460ff165b6111845760405162461bcd60e51b81526004016106dc906128b0565b600783815481106111975761119761289a565b60009182526020909120600690910201546001600160a01b03169392505050565b6000816001600160a01b0381166111e15760405162461bcd60e51b81526004016106dc9061290d565b50506001600160a01b031660009081526009602052604090205490565b60606007805480602002602001604051908101604052809291908181526020016000905b828210156114565760008481526020908190206040805160c081019091526006850290910180546001600160a01b03168252600181018054929391929184019161126b90612866565b80601f016020809104026020016040519081016040528092919081815260200182805461129790612866565b80156112e45780601f106112b9576101008083540402835291602001916112e4565b820191906000526020600020905b8154815290600101906020018083116112c757829003601f168201915b505050505081526020016002820180548060200260200160405190810160405280929190818152602001828054801561134657602002820191906000526020600020905b81546001600160a01b03168152600190910190602001808311611328575b5050505050815260200160038201805480602002602001604051908101604052809291908181526020016000905b8282101561142057838290600052602060002001805461139390612866565b80601f01602080910402602001604051908101604052809291908181526020018280546113bf90612866565b801561140c5780601f106113e15761010080835404028352916020019161140c565b820191906000526020600020905b8154815290600101906020018083116113ef57829003601f168201915b505050505081526020019060010190611374565b50505090825250600482015460208083019190915260059092015460ff1615156040909101529082526001929092019101611222565b50505050905090565b6007818154811061146f57600080fd5b6000918252602090912060069091020180546001820180546001600160a01b0390921693509061149e90612866565b80601f01602080910402602001604051908101604052809291908181526020018280546114ca90612866565b80156115175780601f106114ec57610100808354040283529160200191611517565b820191906000526020600020905b8154815290600101906020018083116114fa57829003601f168201915b50505050600483015460059093015491929160ff16905084565b6000336001600160a01b0384161461158b5760405162461bcd60e51b815260206004820152601860248201527f4f6e6c7920746865206f776e65722063616e206d696e7421000000000000000060448201526064016106dc565b60075460068190556115a09084908490611f30565b600654604080516001600160a01b038616815260208101929092527f46ee897ff0f50fcd40c233a7c383c9a78e426644843f4286b8f2284a37089d30910160405180910390a15060065492915050565b6115f8612173565b6007548290811080156116315750600781815481106116195761161961289a565b600091825260209091206005600690920201015460ff165b61164d5760405162461bcd60e51b81526004016106dc906128b0565b600783815481106116605761166061289a565b60009182526020918290206040805160c0810190915260069092020180546001600160a01b0316825260018101805492939192918401916116a090612866565b80601f01602080910402602001604051908101604052809291908181526020018280546116cc90612866565b80156117195780601f106116ee57610100808354040283529160200191611719565b820191906000526020600020905b8154815290600101906020018083116116fc57829003601f168201915b505050505081526020016002820180548060200260200160405190810160405280929190818152602001828054801561177b57602002820191906000526020600020905b81546001600160a01b0316815260019091019060200180831161175d575b5050505050815260200160038201805480602002602001604051908101604052809291908181526020016000905b828210156118555783829060005260206000200180546117c890612866565b80601f01602080910402602001604051908101604052809291908181526020018280546117f490612866565b80156118415780601f1061181657610100808354040283529160200191611841565b820191906000526020600020905b81548152906001019060200180831161182457829003601f168201915b5050505050815260200190600101906117a9565b505050908252506004820154602082015260059091015460ff1615156040909101529392505050565b60606001805461060190612866565b600860205281600052604060002081815481106118a957600080fd5b90600052602060002001600091509150505481565b6118c93383836120d4565b5050565b6000826001600160a01b0316846001600160a01b031614806118f457506118f48484611af3565b806119185750826001600160a01b031661190d83610684565b6001600160a01b0316145b949350505050565b61192b8484846108ee565b50505050565b60075460609082908110801561196d5750600781815481106119555761195561289a565b600091825260209091206005600690920201015460ff165b6119895760405162461bcd60e51b81526004016106dc906128b0565b6007838154811061199c5761199c61289a565b906000526020600020906006020160010180546119b890612866565b80601f01602080910402602001604051908101604052809291908181526020018280546119e490612866565b8015611a315780601f10611a0657610100808354040283529160200191611a31565b820191906000526020600020905b815481529060010190602001808311611a1457829003601f168201915b5050505050915050919050565b60075460009082908110611a645760405162461bcd60e51b81526004016106dc90612ae3565b836001600160a01b0316611a778461112c565b6001600160a01b0316148015611918575060078381548110611a9b57611a9b61289a565b600091825260209091206005600690920201015460ff16949350505050565b60075460009082908110611ae05760405162461bcd60e51b81526004016106dc90612ae3565b836001600160a01b031661190d8461112c565b6001600160a01b03918216600090815260056020908152604080832093909416825291909152205460ff1690565b6060816001600160a01b038116611b4a5760405162461bcd60e51b81526004016106dc9061290d565b6001600160a01b03831660009081526008602090815260409182902080548351818402810184019094528084529091830182828015611a3157602002820191906000526020600020905b815481526020019060010190808311611b94575050505050915050919050565b60075460009082908110611bda5760405162461bcd60e51b81526004016106dc90612ae3565b60078381548110611bed57611bed61289a565b600091825260209091206006909102016005015460ff169392505050565b600754819081108015611c44575060078181548110611c2c57611c2c61289a565b600091825260209091206005600690920201015460ff165b611c605760405162461bcd60e51b81526004016106dc906128b0565b833083611c6e8383836118cd565b611ce05760405162461bcd60e51b815260206004820152603b60248201527f54686520616464726573732069736e277420617574686f72697a656420746f2060448201527f696e746572616374207769746820746865204149204d6f64656c21000000000060648201526084016106dc565b8560078681548110611cf457611cf461289a565b906000526020600020906006020160000160006101000a8154816001600160a01b0302191690836001600160a01b0316021790555060078581548110611d3c57611d3c61289a565b6000918252602080832060069290920290910160020180546001810182559083528183200180546001600160a01b0319166001600160a01b038b1690811790915582526008905260409020805480611d9657611d96612b1a565b6000828152602080822083016000199081018390559092019092556001600160a01b038089168352600882526040808420805460018181018355918652848620018a9055918b1684526009909252908220805491929091611df8908490612b46565b90915550506001600160a01b0386166000908152600960205260408120805460019290611e26908490612b59565b909155505050505050505050565b336000908152600860205260409020805480611e5257611e52612b1a565b6000828152602080822083016000199081018390559092019092553382526009905260408120805460019290611e89908490612b46565b90915550506007805482908110611ea257611ea261289a565b60009182526020822060069091020180546001600160a01b031916815590611ecd60018301826121b4565b611edb6002830160006121f1565b611ee960038301600061220f565b506000600482018190556005909101805460ff1916905560405182919033907fddf252ad1be2c89b69c2b068fc378daa952ba7f163c4a11628f55a4df523b3ef908390a450565b611f38612173565b6001600160a01b038416815260208082018490526040805160008082528184018352828501919091528151818152928301909152611f86565b6060815260200190600190039081611f715790505b50606082015260808101829052600160a0820181905260078054918201815560005281517fa66cc928b5edb82af9bd49922954155ab7b0942694bea4ce44661d9a8736c688600690920291820180546001600160a01b0319166001600160a01b03909216919091178155602083015183927fa66cc928b5edb82af9bd49922954155ab7b0942694bea4ce44661d9a8736c689019061202490826129f3565b506040820151805161204091600284019160209091019061222d565b506060820151805161205c916003840191602090910190612292565b506080820151600482015560a0909101516005909101805460ff19169115159190911790556001600160a01b0384166000818152600860209081526040808320805460018181018355918552838520018790559383526009909152812080549091906120c9908490612b59565b909155505050505050565b6001600160a01b03821661210657604051630b61174360e31b81526001600160a01b03831660048201526024016106dc565b6001600160a01b03838116600081815260056020908152604080832094871680845294825291829020805460ff191686151590811790915591519182527f17307eab39ab6107e8899845ad3d59bd9653f200f220920489ca2b5937696c31910160405180910390a3505050565b6040518060c0016040528060006001600160a01b03168152602001606081526020016060815260200160608152602001600081526020016000151581525090565b5080546121c090612866565b6000825580601f106121d0575050565b601f0160209004906000526020600020908101906121ee91906122e4565b50565b50805460008255906000526020600020908101906121ee91906122e4565b50805460008255906000526020600020908101906121ee91906122f9565b828054828255906000526020600020908101928215612282579160200282015b8281111561228257825182546001600160a01b0319166001600160a01b0390911617825560209092019160019091019061224d565b5061228e9291506122e4565b5090565b8280548282559060005260206000209081019282156122d8579160200282015b828111156122d857825182906122c890826129f3565b50916020019190600101906122b2565b5061228e9291506122f9565b5b8082111561228e57600081556001016122e5565b8082111561228e57600061230d82826121b4565b506001016122f9565b60006020828403121561232857600080fd5b81356001600160e01b03198116811461234057600080fd5b9392505050565b6000815180845260005b8181101561236d57602081850181015186830182015201612351565b506000602082860101526020601f19601f83011685010191505092915050565b6020815260006123406020830184612347565b6000602082840312156123b257600080fd5b5035919050565b80356001600160a01b03811681146123d057600080fd5b919050565b600080604083850312156123e857600080fd5b6123f1836123b9565b946020939093013593505050565b60008060006060848603121561241457600080fd5b61241d846123b9565b925061242b602085016123b9565b9150604084013590509250925092565b60006020828403121561244d57600080fd5b612340826123b9565b600081518084526020808501808196508360051b8101915082860160005b8581101561249e57828403895261248c848351612347565b98850198935090840190600101612474565b5091979650505050505050565b600060018060a01b0380835116845260208084015160c0828701526124d360c0870182612347565b60408681015188830391890191909152805180835290840192506000918401905b80831015612516578351861682529284019260019290920191908401906124f4565b506060870151945087810360608901526125308186612456565b9450505050506080830151608085015260a083015161255360a086018215159052565b509392505050565b60208152600061234060208301846124ab565b634e487b7160e01b600052604160045260246000fd5b600067ffffffffffffffff8084111561259f5761259f61256e565b604051601f8501601f19908116603f011681019082821181831017156125c7576125c761256e565b816040528093508581528686860111156125e057600080fd5b858560208301376000602087830101525050509392505050565b600082601f83011261260b57600080fd5b61234083833560208501612584565b6000806040838503121561262d57600080fd5b82359150602083013567ffffffffffffffff81111561264b57600080fd5b612657858286016125fa565b9150509250929050565b6000602080830181845280855180835260408601915060408160051b870101925083870160005b828110156126b657603f198886030184526126a48583516124ab565b94509285019290850190600101612688565b5092979650505050505050565b6001600160a01b03851681526080602082018190526000906126e790830186612347565b60408301949094525090151560609091015292915050565b6000806040838503121561271257600080fd5b61271b836123b9565b9150602083013567ffffffffffffffff81111561264b57600080fd5b6000806040838503121561274a57600080fd5b612753836123b9565b91506020830135801515811461276857600080fd5b809150509250929050565b6000806000806080858703121561278957600080fd5b612792856123b9565b93506127a0602086016123b9565b925060408501359150606085013567ffffffffffffffff8111156127c357600080fd5b8501601f810187136127d457600080fd5b6127e387823560208401612584565b91505092959194509250565b6000806040838503121561280257600080fd5b61280b836123b9565b9150612819602084016123b9565b90509250929050565b6020808252825182820181905260009190848201906040850190845b8181101561285a5783518352928401929184019160010161283e565b50909695505050505050565b600181811c9082168061287a57607f821691505b60208210810361070057634e487b7160e01b600052602260045260246000fd5b634e487b7160e01b600052603260045260246000fd5b6020808252603c908201527f4149204d6f64656c20646f65736e2774206578697374206f722068617320626560408201527f656e2072656d6f7665642066726f6d207468652073746f726167652e00000000606082015260800190565b60208082526027908201527f43616e27742070617373207a65726f206164647265737320617320616e20617260408201526667756d656e742160c81b606082015260800190565b60208082526031908201527f4f6e6c79206f776e6572732061726520616c6c6f77656420746f20706572666f604082015270726d20746865206f7065726174696f6e2160781b606082015260800190565b601f821115610a0357600081815260208120601f850160051c810160208610156129cc5750805b601f850160051c820191505b818110156129eb578281556001016129d8565b505050505050565b815167ffffffffffffffff811115612a0d57612a0d61256e565b612a2181612a1b8454612866565b846129a5565b602080601f831160018114612a565760008415612a3e5750858301515b600019600386901b1c1916600185901b1785556129eb565b600085815260208120601f198616915b82811015612a8557888601518255948401946001909101908401612a66565b5085821015612aa35787850151600019600388901b60f8161c191681555b5050505050600190811b01905550565b60018060a01b0384168152826020820152606060408201526000612ada6060830184612347565b95945050505050565b6020808252601c908201527f496e646578206f7574206f662073746f7261676520626f756e64732100000000604082015260600190565b634e487b7160e01b600052603160045260246000fd5b634e487b7160e01b600052601160045260246000fd5b818103818111156105ec576105ec612b30565b808201808211156105ec576105ec612b3056fea2646970667358221220009a37b234fe4d7601ba168a7d170928efcac7394f65ba2fcdfa91051a740c8664736f6c63430008140033",
  "devdoc": {
    "errors": {
      "ERC721IncorrectOwner(address,uint256,address)": [
        {
          "details": "Indicates an error related to the ownership over a particular token. Used in transfers.",
          "params": {
            "owner": "Address of the current owner of a token.",
            "sender": "Address whose tokens are being transferred.",
            "tokenId": "Identifier number of a token."
          }
        }
      ],
      "ERC721InsufficientApproval(address,uint256)": [
        {
          "details": "Indicates a failure with the `operator`s approval. Used in transfers.",
          "params": {
            "operator": "Address that may be allowed to operate on tokens without being their owner.",
            "tokenId": "Identifier number of a token."
          }
        }
      ],
      "ERC721InvalidApprover(address)": [
        {
          "details": "Indicates a failure with the `approver` of a token to be approved. Used in approvals.",
          "params": {
            "approver": "Address initiating an approval operation."
          }
        }
      ],
      "ERC721InvalidOperator(address)": [
        {
          "details": "Indicates a failure with the `operator` to be approved. Used in approvals.",
          "params": {
            "operator": "Address that may be allowed to operate on tokens without being their owner."
          }
        }
      ],
      "ERC721InvalidOwner(address)": [
        {
          "details": "Indicates that an address can't be an owner. For example, `address(0)` is a forbidden owner in EIP-20. Used in balance queries.",
          "params": {
            "owner": "Address of the current owner of a token."
          }
        }
      ],
      "ERC721InvalidReceiver(address)": [
        {
          "details": "Indicates a failure with the token `receiver`. Used in transfers.",
          "params": {
            "receiver": "Address to which tokens are being transferred."
          }
        }
      ],
      "ERC721InvalidSender(address)": [
        {
          "details": "Indicates a failure with the token `sender`. Used in transfers.",
          "params": {
            "sender": "Address whose tokens are being transferred."
          }
        }
      ],
      "ERC721NonexistentToken(uint256)": [
        {
          "details": "Indicates a `tokenId` whose `owner` is the zero address.",
          "params": {
            "tokenId": "Identifier number of a token."
          }
        }
      ]
    },
    "events": {
      "Approval(address,address,uint256)": {
        "details": "Emitted when `owner` enables `approved` to manage the `tokenId` token."
      },
      "ApprovalForAll(address,address,bool)": {
        "details": "Emitted when `owner` enables or disables (`approved`) `operator` to manage all of its assets."
      },
      "Transfer(address,address,uint256)": {
        "details": "Emitted when `tokenId` token is transferred from `from` to `to`."
      }
    },
    "kind": "dev",
    "methods": {
      "isApprovedForAll(address,address)": {
        "details": "See {IERC721-isApprovedForAll}."
      },
      "name()": {
        "details": "See {IERC721Metadata-name}."
      },
      "safeTransferFrom(address,address,uint256)": {
        "details": "See {IERC721-safeTransferFrom}."
      },
      "setApprovalForAll(address,bool)": {
        "details": "See {IERC721-setApprovalForAll}."
      },
      "supportsInterface(bytes4)": {
        "details": "See {IERC165-supportsInterface}."
      },
      "symbol()": {
        "details": "See {IERC721Metadata-symbol}."
      }
    },
    "version": 1
  },
  "userdoc": {
    "kind": "user",
    "methods": {},
    "version": 1
  },
  "storageLayout": {
    "storage": [
      {
        "astId": 169,
        "contract": "contracts/AIagentNFT.sol:AIagentNFT",
        "label": "_name",
        "offset": 0,
        "slot": "0",
        "type": "t_string_storage"
      },
      {
        "astId": 171,
        "contract": "contracts/AIagentNFT.sol:AIagentNFT",
        "label": "_symbol",
        "offset": 0,
        "slot": "1",
        "type": "t_string_storage"
      },
      {
        "astId": 175,
        "contract": "contracts/AIagentNFT.sol:AIagentNFT",
        "label": "_owners",
        "offset": 0,
        "slot": "2",
        "type": "t_mapping(t_uint256,t_address)"
      },
      {
        "astId": 179,
        "contract": "contracts/AIagentNFT.sol:AIagentNFT",
        "label": "_balances",
        "offset": 0,
        "slot": "3",
        "type": "t_mapping(t_address,t_uint256)"
      },
      {
        "astId": 183,
        "contract": "contracts/AIagentNFT.sol:AIagentNFT",
        "label": "_tokenApprovals",
        "offset": 0,
        "slot": "4",
        "type": "t_mapping(t_uint256,t_address)"
      },
      {
        "astId": 189,
        "contract": "contracts/AIagentNFT.sol:AIagentNFT",
        "label": "_operatorApprovals",
        "offset": 0,
        "slot": "5",
        "type": "t_mapping(t_address,t_mapping(t_address,t_bool))"
      },
      {
        "astId": 2804,
        "contract": "contracts/AIagentNFT.sol:AIagentNFT",
        "label": "_tokenIdCounter",
        "offset": 0,
        "slot": "6",
        "type": "t_uint256"
      },
      {
        "astId": 2823,
        "contract": "contracts/AIagentNFT.sol:AIagentNFT",
        "label": "aiAgentStorage",
        "offset": 0,
        "slot": "7",
        "type": "t_array(t_struct(AiAgent)2819_storage)dyn_storage"
      },
      {
        "astId": 2828,
        "contract": "contracts/AIagentNFT.sol:AIagentNFT",
        "label": "owners",
        "offset": 0,
        "slot": "8",
        "type": "t_mapping(t_address,t_array(t_uint256)dyn_storage)"
      },
      {
        "astId": 2832,
        "contract": "contracts/AIagentNFT.sol:AIagentNFT",
        "label": "balances",
        "offset": 0,
        "slot": "9",
        "type": "t_mapping(t_address,t_uint256)"
      },
      {
        "astId": 2836,
        "contract": "contracts/AIagentNFT.sol:AIagentNFT",
        "label": "tokenApprovals",
        "offset": 0,
        "slot": "10",
        "type": "t_mapping(t_uint256,t_address)"
      }
    ],
    "types": {
      "t_address": {
        "encoding": "inplace",
        "label": "address",
        "numberOfBytes": "20"
      },
      "t_array(t_address)dyn_storage": {
        "base": "t_address",
        "encoding": "dynamic_array",
        "label": "address[]",
        "numberOfBytes": "32"
      },
      "t_array(t_string_storage)dyn_storage": {
        "base": "t_string_storage",
        "encoding": "dynamic_array",
        "label": "string[]",
        "numberOfBytes": "32"
      },
      "t_array(t_struct(AiAgent)2819_storage)dyn_storage": {
        "base": "t_struct(AiAgent)2819_storage",
        "encoding": "dynamic_array",
        "label": "struct AIagentNFT.AiAgent[]",
        "numberOfBytes": "32"
      },
      "t_array(t_uint256)dyn_storage": {
        "base": "t_uint256",
        "encoding": "dynamic_array",
        "label": "uint256[]",
        "numberOfBytes": "32"
      },
      "t_bool": {
        "encoding": "inplace",
        "label": "bool",
        "numberOfBytes": "1"
      },
      "t_mapping(t_address,t_array(t_uint256)dyn_storage)": {
        "encoding": "mapping",
        "key": "t_address",
        "label": "mapping(address => uint256[])",
        "numberOfBytes": "32",
        "value": "t_array(t_uint256)dyn_storage"
      },
      "t_mapping(t_address,t_bool)": {
        "encoding": "mapping",
        "key": "t_address",
        "label": "mapping(address => bool)",
        "numberOfBytes": "32",
        "value": "t_bool"
      },
      "t_mapping(t_address,t_mapping(t_address,t_bool))": {
        "encoding": "mapping",
        "key": "t_address",
        "label": "mapping(address => mapping(address => bool))",
        "numberOfBytes": "32",
        "value": "t_mapping(t_address,t_bool)"
      },
      "t_mapping(t_address,t_uint256)": {
        "encoding": "mapping",
        "key": "t_address",
        "label": "mapping(address => uint256)",
        "numberOfBytes": "32",
        "value": "t_uint256"
      },
      "t_mapping(t_uint256,t_address)": {
        "encoding": "mapping",
        "key": "t_uint256",
        "label": "mapping(uint256 => address)",
        "numberOfBytes": "32",
        "value": "t_address"
      },
      "t_string_storage": {
        "encoding": "bytes",
        "label": "string",
        "numberOfBytes": "32"
      },
      "t_struct(AiAgent)2819_storage": {
        "encoding": "inplace",
        "label": "struct AIagentNFT.AiAgent",
        "members": [
          {
            "astId": 2806,
            "contract": "contracts/AIagentNFT.sol:AIagentNFT",
            "label": "owner",
            "offset": 0,
            "slot": "0",
            "type": "t_address"
          },
          {
            "astId": 2808,
            "contract": "contracts/AIagentNFT.sol:AIagentNFT",
            "label": "ipfsLink",
            "offset": 0,
            "slot": "1",
            "type": "t_string_storage"
          },
          {
            "astId": 2811,
            "contract": "contracts/AIagentNFT.sol:AIagentNFT",
            "label": "previous_owners",
            "offset": 0,
            "slot": "2",
            "type": "t_array(t_address)dyn_storage"
          },
          {
            "astId": 2814,
            "contract": "contracts/AIagentNFT.sol:AIagentNFT",
            "label": "previous_versions",
            "offset": 0,
            "slot": "3",
            "type": "t_array(t_string_storage)dyn_storage"
          },
          {
            "astId": 2816,
            "contract": "contracts/AIagentNFT.sol:AIagentNFT",
            "label": "id",
            "offset": 0,
            "slot": "4",
            "type": "t_uint256"
          },
          {
            "astId": 2818,
            "contract": "contracts/AIagentNFT.sol:AIagentNFT",
            "label": "valid",
            "offset": 0,
            "slot": "5",
            "type": "t_bool"
          }
        ],
        "numberOfBytes": "192"
      },
      "t_uint256": {
        "encoding": "inplace",
        "label": "uint256",
        "numberOfBytes": "32"
      }
    }
  }
}