{
  "address": "0xf527Abcb4B53fd92900b257bB4b2F7C1e45Ae3A3",
  "abi": [
    {
      "inputs": [
        {
          "internalType": "address",
          "name": "_marketplace",
          "type": "address"
        }
      ],
      "stateMutability": "nonpayable",
      "type": "constructor"
    },
    {
      "inputs": [
        {
          "internalType": "address",
          "name": "sender",
          "type": "address"
        },
        {
          "internalType": "uint256",
          "name": "tokenId",
          "type": "uint256"
        },
        {
          "internalType": "address",
          "name": "owner",
          "type": "address"
        }
      ],
      "name": "ERC721IncorrectOwner",
      "type": "error"
    },
    {
      "inputs": [
        {
          "internalType": "address",
          "name": "operator",
          "type": "address"
        },
        {
          "internalType": "uint256",
          "name": "tokenId",
          "type": "uint256"
        }
      ],
      "name": "ERC721InsufficientApproval",
      "type": "error"
    },
    {
      "inputs": [
        {
          "internalType": "address",
          "name": "approver",
          "type": "address"
        }
      ],
      "name": "ERC721InvalidApprover",
      "type": "error"
    },
    {
      "inputs": [
        {
          "internalType": "address",
          "name": "operator",
          "type": "address"
        }
      ],
      "name": "ERC721InvalidOperator",
      "type": "error"
    },
    {
      "inputs": [
        {
          "internalType": "address",
          "name": "owner",
          "type": "address"
        }
      ],
      "name": "ERC721InvalidOwner",
      "type": "error"
    },
    {
      "inputs": [
        {
          "internalType": "address",
          "name": "receiver",
          "type": "address"
        }
      ],
      "name": "ERC721InvalidReceiver",
      "type": "error"
    },
    {
      "inputs": [
        {
          "internalType": "address",
          "name": "sender",
          "type": "address"
        }
      ],
      "name": "ERC721InvalidSender",
      "type": "error"
    },
    {
      "inputs": [
        {
          "internalType": "uint256",
          "name": "tokenId",
          "type": "uint256"
        }
      ],
      "name": "ERC721NonexistentToken",
      "type": "error"
    },
    {
      "inputs": [],
      "name": "NotValidId",
      "type": "error"
    },
    {
      "anonymous": false,
      "inputs": [
        {
          "indexed": false,
          "internalType": "address",
          "name": "_owner",
          "type": "address"
        },
        {
          "indexed": false,
          "internalType": "uint256",
          "name": "_id",
          "type": "uint256"
        }
      ],
      "name": "AddedAiModel",
      "type": "event"
    },
    {
      "anonymous": false,
      "inputs": [
        {
          "indexed": true,
          "internalType": "address",
          "name": "owner",
          "type": "address"
        },
        {
          "indexed": true,
          "internalType": "address",
          "name": "approved",
          "type": "address"
        },
        {
          "indexed": true,
          "internalType": "uint256",
          "name": "tokenId",
          "type": "uint256"
        }
      ],
      "name": "Approval",
      "type": "event"
    },
    {
      "anonymous": false,
      "inputs": [
        {
          "indexed": true,
          "internalType": "address",
          "name": "owner",
          "type": "address"
        },
        {
          "indexed": true,
          "internalType": "address",
          "name": "operator",
          "type": "address"
        },
        {
          "indexed": false,
          "internalType": "bool",
          "name": "approved",
          "type": "bool"
        }
      ],
      "name": "ApprovalForAll",
      "type": "event"
    },
    {
      "anonymous": false,
      "inputs": [
        {
          "indexed": false,
          "internalType": "address",
          "name": "_owner",
          "type": "address"
        },
        {
          "indexed": false,
          "internalType": "address",
          "name": "_operator",
          "type": "address"
        },
        {
          "indexed": false,
          "internalType": "uint256",
          "name": "_id",
          "type": "uint256"
        }
      ],
      "name": "Approved",
      "type": "event"
    },
    {
      "anonymous": false,
      "inputs": [
        {
          "indexed": false,
          "internalType": "address",
          "name": "_owner",
          "type": "address"
        },
        {
          "indexed": false,
          "internalType": "uint256",
          "name": "_id",
          "type": "uint256"
        }
      ],
      "name": "Burned",
      "type": "event"
    },
    {
      "anonymous": false,
      "inputs": [
        {
          "indexed": true,
          "internalType": "address",
          "name": "from",
          "type": "address"
        },
        {
          "indexed": true,
          "internalType": "address",
          "name": "to",
          "type": "address"
        },
        {
          "indexed": true,
          "internalType": "uint256",
          "name": "tokenId",
          "type": "uint256"
        }
      ],
      "name": "Transfer",
      "type": "event"
    },
    {
      "anonymous": false,
      "inputs": [
        {
          "indexed": false,
          "internalType": "address",
          "name": "_from",
          "type": "address"
        },
        {
          "indexed": false,
          "internalType": "address",
          "name": "_to",
          "type": "address"
        },
        {
          "indexed": false,
          "internalType": "uint256",
          "name": "_id",
          "type": "uint256"
        }
      ],
      "name": "Transfered",
      "type": "event"
    },
    {
      "anonymous": false,
      "inputs": [
        {
          "indexed": false,
          "internalType": "address",
          "name": "_owner",
          "type": "address"
        },
        {
          "indexed": false,
          "internalType": "uint256",
          "name": "_id",
          "type": "uint256"
        },
        {
          "indexed": false,
          "internalType": "string",
          "name": "_ipfsHash",
          "type": "string"
        }
      ],
      "name": "VersionUpdate",
      "type": "event"
    },
    {
      "stateMutability": "payable",
      "type": "fallback"
    },
    {
      "inputs": [
        {
          "internalType": "uint256",
          "name": "",
          "type": "uint256"
        }
      ],
      "name": "aiModelStorage",
      "outputs": [
        {
          "internalType": "address",
          "name": "owner",
          "type": "address"
        },
        {
          "internalType": "uint256",
          "name": "watermarkId",
          "type": "uint256"
        },
        {
          "internalType": "string",
          "name": "ipfsHash",
          "type": "string"
        },
        {
          "internalType": "uint256",
          "name": "id",
          "type": "uint256"
        },
        {
          "internalType": "bool",
          "name": "valid",
          "type": "bool"
        }
      ],
      "stateMutability": "view",
      "type": "function"
    },
    {
      "inputs": [
        {
          "internalType": "address",
          "name": "_to",
          "type": "address"
        },
        {
          "internalType": "uint256",
          "name": "_id",
          "type": "uint256"
        }
      ],
      "name": "approve",
      "outputs": [],
      "stateMutability": "nonpayable",
      "type": "function"
    },
    {
      "inputs": [
        {
          "internalType": "address",
          "name": "_owner",
          "type": "address"
        }
      ],
      "name": "balanceOf",
      "outputs": [
        {
          "internalType": "uint256",
          "name": "",
          "type": "uint256"
        }
      ],
      "stateMutability": "view",
      "type": "function"
    },
    {
      "inputs": [
        {
          "internalType": "address",
          "name": "owner",
          "type": "address"
        }
      ],
      "name": "balances",
      "outputs": [
        {
          "internalType": "uint256",
          "name": "",
          "type": "uint256"
        }
      ],
      "stateMutability": "view",
      "type": "function"
    },
    {
      "inputs": [
        {
          "internalType": "uint256",
          "name": "_id",
          "type": "uint256"
        }
      ],
      "name": "burn",
      "outputs": [
        {
          "components": [
            {
              "internalType": "address",
              "name": "owner",
              "type": "address"
            },
            {
              "internalType": "uint256",
              "name": "watermarkId",
              "type": "uint256"
            },
            {
              "internalType": "string",
              "name": "ipfsHash",
              "type": "string"
            },
            {
              "internalType": "address[]",
              "name": "previous_owners",
              "type": "address[]"
            },
            {
              "internalType": "string[]",
              "name": "previous_versions",
              "type": "string[]"
            },
            {
              "internalType": "uint256",
              "name": "id",
              "type": "uint256"
            },
            {
              "internalType": "bool",
              "name": "valid",
              "type": "bool"
            }
          ],
          "internalType": "struct AIModelNFT.AiModel",
          "name": "",
          "type": "tuple"
        }
      ],
      "stateMutability": "nonpayable",
      "type": "function"
    },
    {
      "inputs": [
        {
          "internalType": "uint256",
          "name": "_id",
          "type": "uint256"
        }
      ],
      "name": "getAiModel",
      "outputs": [
        {
          "components": [
            {
              "internalType": "address",
              "name": "owner",
              "type": "address"
            },
            {
              "internalType": "uint256",
              "name": "watermarkId",
              "type": "uint256"
            },
            {
              "internalType": "string",
              "name": "ipfsHash",
              "type": "string"
            },
            {
              "internalType": "address[]",
              "name": "previous_owners",
              "type": "address[]"
            },
            {
              "internalType": "string[]",
              "name": "previous_versions",
              "type": "string[]"
            },
            {
              "internalType": "uint256",
              "name": "id",
              "type": "uint256"
            },
            {
              "internalType": "bool",
              "name": "valid",
              "type": "bool"
            }
          ],
          "internalType": "struct AIModelNFT.AiModel",
          "name": "",
          "type": "tuple"
        }
      ],
      "stateMutability": "view",
      "type": "function"
    },
    {
      "inputs": [],
      "name": "getAiModelStorage",
      "outputs": [
        {
          "components": [
            {
              "internalType": "address",
              "name": "owner",
              "type": "address"
            },
            {
              "internalType": "uint256",
              "name": "watermarkId",
              "type": "uint256"
            },
            {
              "internalType": "string",
              "name": "ipfsHash",
              "type": "string"
            },
            {
              "internalType": "address[]",
              "name": "previous_owners",
              "type": "address[]"
            },
            {
              "internalType": "string[]",
              "name": "previous_versions",
              "type": "string[]"
            },
            {
              "internalType": "uint256",
              "name": "id",
              "type": "uint256"
            },
            {
              "internalType": "bool",
              "name": "valid",
              "type": "bool"
            }
          ],
          "internalType": "struct AIModelNFT.AiModel[]",
          "name": "",
          "type": "tuple[]"
        }
      ],
      "stateMutability": "view",
      "type": "function"
    },
    {
      "inputs": [
        {
          "internalType": "uint256",
          "name": "_id",
          "type": "uint256"
        }
      ],
      "name": "getApproved",
      "outputs": [
        {
          "internalType": "address",
          "name": "",
          "type": "address"
        }
      ],
      "stateMutability": "view",
      "type": "function"
    },
    {
      "inputs": [
        {
          "internalType": "address",
          "name": "owner",
          "type": "address"
        },
        {
          "internalType": "address",
          "name": "operator",
          "type": "address"
        }
      ],
      "name": "isApprovedForAll",
      "outputs": [
        {
          "internalType": "bool",
          "name": "",
          "type": "bool"
        }
      ],
      "stateMutability": "view",
      "type": "function"
    },
    {
      "inputs": [
        {
          "internalType": "address",
          "name": "_owner",
          "type": "address"
        },
        {
          "internalType": "address",
          "name": "_spender",
          "type": "address"
        },
        {
          "internalType": "uint256",
          "name": "_id",
          "type": "uint256"
        }
      ],
      "name": "isAuthorized",
      "outputs": [
        {
          "internalType": "bool",
          "name": "",
          "type": "bool"
        }
      ],
      "stateMutability": "view",
      "type": "function"
    },
    {
      "inputs": [
        {
          "internalType": "uint256",
          "name": "_id",
          "type": "uint256"
        }
      ],
      "name": "isOwner",
      "outputs": [
        {
          "internalType": "bool",
          "name": "",
          "type": "bool"
        }
      ],
      "stateMutability": "view",
      "type": "function"
    },
    {
      "inputs": [
        {
          "internalType": "uint256",
          "name": "_id",
          "type": "uint256"
        }
      ],
      "name": "isOwnerAndValid",
      "outputs": [
        {
          "internalType": "bool",
          "name": "",
          "type": "bool"
        }
      ],
      "stateMutability": "view",
      "type": "function"
    },
    {
      "inputs": [
        {
          "internalType": "uint256",
          "name": "_id",
          "type": "uint256"
        }
      ],
      "name": "isValid",
      "outputs": [
        {
          "internalType": "bool",
          "name": "",
          "type": "bool"
        }
      ],
      "stateMutability": "view",
      "type": "function"
    },
    {
      "inputs": [],
      "name": "marketplaceAddr",
      "outputs": [
        {
          "internalType": "address",
          "name": "",
          "type": "address"
        }
      ],
      "stateMutability": "view",
      "type": "function"
    },
    {
      "inputs": [],
      "name": "name",
      "outputs": [
        {
          "internalType": "string",
          "name": "",
          "type": "string"
        }
      ],
      "stateMutability": "view",
      "type": "function"
    },
    {
      "inputs": [
        {
          "internalType": "address",
          "name": "_owner",
          "type": "address"
        }
      ],
      "name": "ownedAiModels",
      "outputs": [
        {
          "internalType": "uint256[]",
          "name": "",
          "type": "uint256[]"
        }
      ],
      "stateMutability": "view",
      "type": "function"
    },
    {
      "inputs": [
        {
          "internalType": "uint256",
          "name": "_id",
          "type": "uint256"
        }
      ],
      "name": "ownerOf",
      "outputs": [
        {
          "internalType": "address",
          "name": "",
          "type": "address"
        }
      ],
      "stateMutability": "view",
      "type": "function"
    },
    {
      "inputs": [
        {
          "internalType": "address",
          "name": "",
          "type": "address"
        },
        {
          "internalType": "uint256",
          "name": "",
          "type": "uint256"
        }
      ],
      "name": "owners",
      "outputs": [
        {
          "internalType": "uint256",
          "name": "",
          "type": "uint256"
        }
      ],
      "stateMutability": "view",
      "type": "function"
    },
    {
      "inputs": [
        {
          "internalType": "address",
          "name": "_to",
          "type": "address"
        },
        {
          "internalType": "string",
          "name": "_ipfsHash",
          "type": "string"
        },
        {
          "internalType": "uint256",
          "name": "_watermarkId",
          "type": "uint256"
        }
      ],
      "name": "registerAiModel",
      "outputs": [
        {
          "internalType": "uint256",
          "name": "",
          "type": "uint256"
        }
      ],
      "stateMutability": "nonpayable",
      "type": "function"
    },
    {
      "inputs": [
        {
          "internalType": "address",
          "name": "from",
          "type": "address"
        },
        {
          "internalType": "address",
          "name": "to",
          "type": "address"
        },
        {
          "internalType": "uint256",
          "name": "tokenId",
          "type": "uint256"
        }
      ],
      "name": "safeTransferFrom",
      "outputs": [],
      "stateMutability": "nonpayable",
      "type": "function"
    },
    {
      "inputs": [
        {
          "internalType": "address",
          "name": "_from",
          "type": "address"
        },
        {
          "internalType": "address",
          "name": "_to",
          "type": "address"
        },
        {
          "internalType": "uint256",
          "name": "_id",
          "type": "uint256"
        },
        {
          "internalType": "bytes",
          "name": "_data",
          "type": "bytes"
        }
      ],
      "name": "safeTransferFrom",
      "outputs": [],
      "stateMutability": "nonpayable",
      "type": "function"
    },
    {
      "inputs": [
        {
          "internalType": "address",
          "name": "operator",
          "type": "address"
        },
        {
          "internalType": "bool",
          "name": "approved",
          "type": "bool"
        }
      ],
      "name": "setApprovalForAll",
      "outputs": [],
      "stateMutability": "nonpayable",
      "type": "function"
    },
    {
      "inputs": [
        {
          "internalType": "bytes4",
          "name": "interfaceId",
          "type": "bytes4"
        }
      ],
      "name": "supportsInterface",
      "outputs": [
        {
          "internalType": "bool",
          "name": "",
          "type": "bool"
        }
      ],
      "stateMutability": "view",
      "type": "function"
    },
    {
      "inputs": [],
      "name": "symbol",
      "outputs": [
        {
          "internalType": "string",
          "name": "",
          "type": "string"
        }
      ],
      "stateMutability": "view",
      "type": "function"
    },
    {
      "inputs": [
        {
          "internalType": "uint256",
          "name": "id",
          "type": "uint256"
        }
      ],
      "name": "tokenApprovals",
      "outputs": [
        {
          "internalType": "address",
          "name": "",
          "type": "address"
        }
      ],
      "stateMutability": "view",
      "type": "function"
    },
    {
      "inputs": [
        {
          "internalType": "uint256",
          "name": "_id",
          "type": "uint256"
        }
      ],
      "name": "tokenURI",
      "outputs": [
        {
          "internalType": "string",
          "name": "",
          "type": "string"
        }
      ],
      "stateMutability": "view",
      "type": "function"
    },
    {
      "inputs": [
        {
          "internalType": "address",
          "name": "_from",
          "type": "address"
        },
        {
          "internalType": "address",
          "name": "_to",
          "type": "address"
        },
        {
          "internalType": "uint256",
          "name": "_id",
          "type": "uint256"
        }
      ],
      "name": "transferFrom",
      "outputs": [],
      "stateMutability": "nonpayable",
      "type": "function"
    },
    {
      "inputs": [
        {
          "internalType": "uint256",
          "name": "_id",
          "type": "uint256"
        },
        {
          "internalType": "string",
          "name": "_newIpfsHash",
          "type": "string"
        }
      ],
      "name": "updateVersion",
      "outputs": [
        {
          "components": [
            {
              "internalType": "address",
              "name": "owner",
              "type": "address"
            },
            {
              "internalType": "uint256",
              "name": "watermarkId",
              "type": "uint256"
            },
            {
              "internalType": "string",
              "name": "ipfsHash",
              "type": "string"
            },
            {
              "internalType": "address[]",
              "name": "previous_owners",
              "type": "address[]"
            },
            {
              "internalType": "string[]",
              "name": "previous_versions",
              "type": "string[]"
            },
            {
              "internalType": "uint256",
              "name": "id",
              "type": "uint256"
            },
            {
              "internalType": "bool",
              "name": "valid",
              "type": "bool"
            }
          ],
          "internalType": "struct AIModelNFT.AiModel",
          "name": "",
          "type": "tuple"
        }
      ],
      "stateMutability": "nonpayable",
      "type": "function"
    },
    {
      "stateMutability": "payable",
      "type": "receive"
    }
  ],
  "transactionHash": "0xa444f33b11dc501e645a7e50be485e57a2c03348e460631dd78675a33808e95d",
  "args": [
    "0xda70F639c65a32deCef5Fb8Fa9C40F21Dc03F2Ca"
  ],
  "numDeployments": 1,
  "solcInputHash": "c2793427c59c7c9b4de5fe4023776240",
  "bytecode": "0x60806040523480156200001157600080fd5b5060405162002fc838038062002fc88339810160408190526200003491620000bf565b6040518060400160405280600a8152602001691052535bd9195b13919560b21b81525060405180604001604052806005815260200164105253919560da1b815250816000908162000086919062000196565b50600162000095828262000196565b5050600780546001600160a01b0319166001600160a01b0393909316929092179091555062000262565b600060208284031215620000d257600080fd5b81516001600160a01b0381168114620000ea57600080fd5b9392505050565b634e487b7160e01b600052604160045260246000fd5b600181811c908216806200011c57607f821691505b6020821081036200013d57634e487b7160e01b600052602260045260246000fd5b50919050565b601f8211156200019157600081815260208120601f850160051c810160208610156200016c5750805b601f850160051c820191505b818110156200018d5782815560010162000178565b5050505b505050565b81516001600160401b03811115620001b257620001b2620000f1565b620001ca81620001c3845462000107565b8462000143565b602080601f831160018114620002025760008415620001e95750858301515b600019600386901b1c1916600185901b1785556200018d565b600085815260208120601f198616915b82811015620002335788860151825594840194600190910190840162000212565b5085821015620002525787850151600019600388901b60f8161c191681555b5050505050600190811b01905550565b612d5680620002726000396000f3fe6080604052600436106101a35760003560e01c8063a22cb465116100e0578063c806e67d11610084578063e54b91b411610061578063e54b91b41461052e578063e985e9c51461054e578063f577a5001461056e578063fbb425e01461058e57005b8063c806e67d146104c1578063c87b56dd146104e1578063cec17c2d1461050157005b8063af0c98e6116100bd578063af0c98e614610430578063b88d4fde14610450578063baf2180a14610470578063c0364bb11461049057005b8063a22cb465146103b8578063a83e280b146103d8578063acdeb5b9146103fa57005b806342842e0e116101475780636352211e116101245780636352211e1461034357806370a082311461036357806395d89b41146103835780639b3e27871461039857005b806342842e0e146102d657806342966c68146102f657806356bd2ba21461032357005b8063095ea7b311610180578063095ea7b31461023b57806323b872dd1461025b57806327e235e31461027b57806339c7639c146102b657005b806301ffc9a7146101ac57806306fdde03146101e1578063081812fc1461020357005b366101aa57005b005b3480156101b857600080fd5b506101cc6101c7366004612474565b6105ae565b60405190151581526020015b60405180910390f35b3480156101ed57600080fd5b506101f6610600565b6040516101d891906124ee565b34801561020f57600080fd5b5061022361021e366004612501565b610692565b6040516001600160a01b0390911681526020016101d8565b34801561024757600080fd5b506101aa610256366004612536565b610714565b34801561026757600080fd5b506101aa610276366004612560565b6108fc565b34801561028757600080fd5b506102a861029636600461259c565b600a6020526000908152604090205481565b6040519081526020016101d8565b3480156102c257600080fd5b506101cc6102d1366004612501565b6109f6565b3480156102e257600080fd5b506101aa6102f1366004612560565b610a5b565b34801561030257600080fd5b50610316610311366004612501565b610a7b565b6040516101d891906126c6565b34801561032f57600080fd5b5061031661033e366004612785565b610d17565b34801561034f57600080fd5b5061022361035e366004612501565b61115b565b34801561036f57600080fd5b506102a861037e36600461259c565b6111e7565b34801561038f57600080fd5b506101f661122d565b3480156103a457600080fd5b506102a86103b3366004612536565b61123c565b3480156103c457600080fd5b506101aa6103d33660046127cc565b61126d565b3480156103e457600080fd5b506103ed61127c565b6040516101d89190612808565b34801561040657600080fd5b50610223610415366004612501565b600b602052600090815260409020546001600160a01b031681565b34801561043c57600080fd5b506101cc61044b366004612560565b6114e7565b34801561045c57600080fd5b506101aa61046b36600461286a565b61153a565b34801561047c57600080fd5b50600754610223906001600160a01b031681565b34801561049c57600080fd5b506104b06104ab366004612501565b61154b565b6040516101d89594939291906128e6565b3480156104cd57600080fd5b506102a86104dc366004612926565b611624565b3480156104ed57600080fd5b506101f66104fc366004612501565b6116e5565b34801561050d57600080fd5b5061052161051c36600461259c565b611860565b6040516101d8919061297d565b34801561053a57600080fd5b506101cc610549366004612501565b6118f4565b34801561055a57600080fd5b506101cc6105693660046129c1565b61198b565b34801561057a57600080fd5b506101cc610589366004612501565b6119b9565b34801561059a57600080fd5b506103166105a9366004612501565b6119f2565b60006001600160e01b031982166380ac58cd60e01b14806105df57506001600160e01b03198216635b5e139f60e01b145b806105fa57506301ffc9a760e01b6001600160e01b03198316145b92915050565b60606000805461060f906129f4565b80601f016020809104026020016040519081016040528092919081815260200182805461063b906129f4565b80156106885780601f1061065d57610100808354040283529160200191610688565b820191906000526020600020905b81548152906001019060200180831161066b57829003601f168201915b5050505050905090565b6008546000908290811080156106ce5750600881815481106106b6576106b6612a28565b600091825260209091206006600790920201015460ff165b6106f35760405162461bcd60e51b81526004016106ea90612a3e565b60405180910390fd5b6000838152600b60205260409020546001600160a01b031691505b50919050565b816001600160a01b03811661073b5760405162461bcd60e51b81526004016106ea90612a9b565b33806107595760405162461bcd60e51b81526004016106ea90612a9b565b60085483908110801561079257506008818154811061077a5761077a612a28565b600091825260209091206006600790920201015460ff165b6107ae5760405162461bcd60e51b81526004016106ea90612a3e565b6107b78461115b565b6001600160a01b0316336001600160a01b031614806107e357506107e36107dd8561115b565b3361198b565b61087b5760405162461bcd60e51b815260206004820152605960248201527f4f6e6c7920746865206f776e6572206f66206964206f7220617070726f76656460448201527f20666f7220616c6c206f70657261746f722063616e20617070726f766520746860648201527f65206164647265737320666f72207468697320746f6b656e2100000000000000608482015260a4016106ea565b6000848152600b6020526040902080546001600160a01b0319166001600160a01b0387161790557f80da462ebfbe41cfc9bc015e7a9a3c7a2a73dbccede72d8ceb583606c27f8f906108cc8561115b565b604080516001600160a01b0392831681529188166020830152810186905260600160405180910390a15050505050565b816001600160a01b0381166109235760405162461bcd60e51b81526004016106ea90612a9b565b836001600160a01b0316836001600160a01b03160361099a5760405162461bcd60e51b815260206004820152602d60248201527f46726f6d20616464726573732063616e2774206265207468652073616d65206160448201526c7320746f20616464726573732160981b60648201526084016106ea565b6109a5848484611ca2565b604080516001600160a01b038087168252851660208201529081018390527f8930ac7bcb101f94c05b13845098ae74383bfb9e348e73061b730040945cbb829060600160405180910390a150505050565b60085460009082908110610a1c5760405162461bcd60e51b81526004016106ea90612ae2565b336001600160a01b031660088481548110610a3957610a39612a28565b60009182526020909120600790910201546001600160a01b0316149392505050565b610a768383836040518060200160405280600081525061153a565b505050565b610a836122ca565b610a8c82611ecb565b60408051338152602081018490527f696de425f79f4a40bc6d2122ca50507f0efbeabbff86a84871b7196ab8ea8df7910160405180910390a160088281548110610ad857610ad8612a28565b90600052602060002090600702016040518060e00160405290816000820160009054906101000a90046001600160a01b03166001600160a01b03166001600160a01b0316815260200160018201548152602001600282018054610b3a906129f4565b80601f0160208091040260200160405190810160405280929190818152602001828054610b66906129f4565b8015610bb35780601f10610b8857610100808354040283529160200191610bb3565b820191906000526020600020905b815481529060010190602001808311610b9657829003601f168201915b5050505050815260200160038201805480602002602001604051908101604052809291908181526020018280548015610c1557602002820191906000526020600020905b81546001600160a01b03168152600190910190602001808311610bf7575b5050505050815260200160048201805480602002602001604051908101604052809291908181526020016000905b82821015610cef578382906000526020600020018054610c62906129f4565b80601f0160208091040260200160405190810160405280929190818152602001828054610c8e906129f4565b8015610cdb5780601f10610cb057610100808354040283529160200191610cdb565b820191906000526020600020905b815481529060010190602001808311610cbe57829003601f168201915b505050505081526020019060010190610c43565b505050908252506005820154602082015260069091015460ff16151560409091015292915050565b610d1f6122ca565b600854839081108015610d58575060088181548110610d4057610d40612a28565b600091825260209091206006600790920201015460ff165b610d745760405162461bcd60e51b81526004016106ea90612a3e565b8333610d7f8261115b565b6001600160a01b031614610da55760405162461bcd60e51b81526004016106ea90612b19565b600060088681548110610dba57610dba612a28565b90600052602060002090600702016002018054610dd6906129f4565b80601f0160208091040260200160405190810160405280929190818152602001828054610e02906129f4565b8015610e4f5780601f10610e2457610100808354040283529160200191610e4f565b820191906000526020600020905b815481529060010190602001808311610e3257829003601f168201915b5050505050905060088681548110610e6957610e69612a28565b600091825260208083206004600790930201919091018054600181018255908352912001610e978282612bb8565b508460088781548110610eac57610eac612a28565b90600052602060002090600702016002019081610ec99190612bb8565b507fa5241e763c7c94a761c9fbc6eca4a7f29912626d01742e6a43d6f620b273cae8338787604051610efd93929190612c78565b60405180910390a160088681548110610f1857610f18612a28565b90600052602060002090600702016040518060e00160405290816000820160009054906101000a90046001600160a01b03166001600160a01b03166001600160a01b0316815260200160018201548152602001600282018054610f7a906129f4565b80601f0160208091040260200160405190810160405280929190818152602001828054610fa6906129f4565b8015610ff35780601f10610fc857610100808354040283529160200191610ff3565b820191906000526020600020905b815481529060010190602001808311610fd657829003601f168201915b505050505081526020016003820180548060200260200160405190810160405280929190818152602001828054801561105557602002820191906000526020600020905b81546001600160a01b03168152600190910190602001808311611037575b5050505050815260200160048201805480602002602001604051908101604052809291908181526020016000905b8282101561112f5783829060005260206000200180546110a2906129f4565b80601f01602080910402602001604051908101604052809291908181526020018280546110ce906129f4565b801561111b5780601f106110f05761010080835404028352916020019161111b565b820191906000526020600020905b8154815290600101906020018083116110fe57829003601f168201915b505050505081526020019060010190611083565b505050908252506005820154602082015260069091015460ff1615156040909101529695505050505050565b60085460009082908110801561119757506008818154811061117f5761117f612a28565b600091825260209091206006600790920201015460ff165b6111b35760405162461bcd60e51b81526004016106ea90612a3e565b600883815481106111c6576111c6612a28565b60009182526020909120600790910201546001600160a01b03169392505050565b6000816001600160a01b0381166112105760405162461bcd60e51b81526004016106ea90612a9b565b50506001600160a01b03166000908152600a602052604090205490565b60606001805461060f906129f4565b6009602052816000526040600020818154811061125857600080fd5b90600052602060002001600091509150505481565b611278338383612056565b5050565b60606008805480602002602001604051908101604052809291908181526020016000905b828210156114de5760008481526020908190206040805160e0810182526007860290920180546001600160a01b03168352600181015493830193909352600283018054929392918401916112f3906129f4565b80601f016020809104026020016040519081016040528092919081815260200182805461131f906129f4565b801561136c5780601f106113415761010080835404028352916020019161136c565b820191906000526020600020905b81548152906001019060200180831161134f57829003601f168201915b50505050508152602001600382018054806020026020016040519081016040528092919081815260200182805480156113ce57602002820191906000526020600020905b81546001600160a01b031681526001909101906020018083116113b0575b5050505050815260200160048201805480602002602001604051908101604052809291908181526020016000905b828210156114a857838290600052602060002001805461141b906129f4565b80601f0160208091040260200160405190810160405280929190818152602001828054611447906129f4565b80156114945780601f1061146957610100808354040283529160200191611494565b820191906000526020600020905b81548152906001019060200180831161147757829003601f168201915b5050505050815260200190600101906113fc565b50505090825250600582015460208083019190915260069092015460ff16151560409091015290825260019290920191016112a0565b50505050905090565b6000826001600160a01b0316846001600160a01b0316148061150e575061150e848461198b565b806115325750826001600160a01b031661152783610692565b6001600160a01b0316145b949350505050565b6115458484846108fc565b50505050565b6008818154811061155b57600080fd5b60009182526020909120600790910201805460018201546002830180546001600160a01b039093169450909291611591906129f4565b80601f01602080910402602001604051908101604052809291908181526020018280546115bd906129f4565b801561160a5780601f106115df5761010080835404028352916020019161160a565b820191906000526020600020905b8154815290600101906020018083116115ed57829003601f168201915b50505050600583015460069093015491929160ff16905085565b6000336001600160a01b0385161461167e5760405162461bcd60e51b815260206004820152601860248201527f4f6e6c7920746865206f776e65722063616e206d696e7421000000000000000060448201526064016106ea565b60085460068190556116949085908590856120f5565b600654604080516001600160a01b038716815260208101929092527fece1b931de76a9f219cf36dea1a362453697b7221bac2fb3db5ab32d262ad426910160405180910390a1506006549392505050565b60085460609082908110801561172157506008818154811061170957611709612a28565b600091825260209091206006600790920201015460ff165b61173d5760405162461bcd60e51b81526004016106ea90612a3e565b6000611763604080518082019091526007815266697066733a2f2f60c81b602082015290565b905060006008858154811061177a5761177a612a28565b90600052602060002090600702016002018054611796906129f4565b80601f01602080910402602001604051908101604052809291908181526020018280546117c2906129f4565b801561180f5780601f106117e45761010080835404028352916020019161180f565b820191906000526020600020905b8154815290600101906020018083116117f257829003601f168201915b5050505050905060008251116118345760405180602001604052806000815250611857565b8181604051602001611847929190612c9f565b6040516020818303038152906040525b95945050505050565b6060816001600160a01b0381166118895760405162461bcd60e51b81526004016106ea90612a9b565b6001600160a01b038316600090815260096020908152604091829020805483518184028101840190945280845290918301828280156118e757602002820191906000526020600020905b8154815260200190600101908083116118d3575b5050505050915050919050565b6008546000908290811061191a5760405162461bcd60e51b81526004016106ea90612ae2565b336001600160a01b03166008848154811061193757611937612a28565b60009182526020909120600790910201546001600160a01b031614801561198457506008838154811061196c5761196c612a28565b600091825260209091206006600790920201015460ff165b9392505050565b6001600160a01b03918216600090815260056020908152604080832093909416825291909152205460ff1690565b600854600090829081106119df5760405162461bcd60e51b81526004016106ea90612ae2565b6008838154811061196c5761196c612a28565b6119fa6122ca565b600854829081108015611a33575060088181548110611a1b57611a1b612a28565b600091825260209091206006600790920201015460ff165b611a4f5760405162461bcd60e51b81526004016106ea90612a3e565b60088381548110611a6257611a62612a28565b90600052602060002090600702016040518060e00160405290816000820160009054906101000a90046001600160a01b03166001600160a01b03166001600160a01b0316815260200160018201548152602001600282018054611ac4906129f4565b80601f0160208091040260200160405190810160405280929190818152602001828054611af0906129f4565b8015611b3d5780601f10611b1257610100808354040283529160200191611b3d565b820191906000526020600020905b815481529060010190602001808311611b2057829003601f168201915b5050505050815260200160038201805480602002602001604051908101604052809291908181526020018280548015611b9f57602002820191906000526020600020905b81546001600160a01b03168152600190910190602001808311611b81575b5050505050815260200160048201805480602002602001604051908101604052809291908181526020016000905b82821015611c79578382906000526020600020018054611bec906129f4565b80601f0160208091040260200160405190810160405280929190818152602001828054611c18906129f4565b8015611c655780601f10611c3a57610100808354040283529160200191611c65565b820191906000526020600020905b815481529060010190602001808311611c4857829003601f168201915b505050505081526020019060010190611bcd565b505050908252506005820154602082015260069091015460ff1615156040909101529392505050565b600854819081108015611cdb575060088181548110611cc357611cc3612a28565b600091825260209091206006600790920201015460ff165b611cf75760405162461bcd60e51b81526004016106ea90612a3e565b833383611d058383836114e7565b611d775760405162461bcd60e51b815260206004820152603b60248201527f54686520616464726573732069736e277420617574686f72697a656420746f2060448201527f696e746572616374207769746820746865204149204d6f64656c21000000000060648201526084016106ea565b8560088681548110611d8b57611d8b612a28565b906000526020600020906007020160000160006101000a8154816001600160a01b0302191690836001600160a01b0316021790555060088581548110611dd357611dd3612a28565b6000918252602080832060079290920290910160030180546001810182559083528183200180546001600160a01b0319166001600160a01b038b1690811790915582526009905260409020805480611e2d57611e2d612cce565b6000828152602080822083016000199081018390559092019092556001600160a01b038089168352600982526040808420805460018181018355918652848620018a9055918b168452600a909252908220805491929091611e8f908490612cfa565b90915550506001600160a01b0386166000908152600a60205260408120805460019290611ebd908490612d0d565b909155505050505050505050565b600854819081108015611f04575060088181548110611eec57611eec612a28565b600091825260209091206006600790920201015460ff165b611f205760405162461bcd60e51b81526004016106ea90612a3e565b8133611f2b8261115b565b6001600160a01b031614611f515760405162461bcd60e51b81526004016106ea90612b19565b336000908152600960205260409020805480611f6f57611f6f612cce565b600082815260208082208301600019908101839055909201909255338252600a905260408120805460019290611fa6908490612cfa565b90915550506008805484908110611fbf57611fbf612a28565b60009182526020822060079091020180546001600160a01b03191681556001810182905590611ff16002830182612312565b611fff60038301600061234f565b61200d60048301600061236d565b506000600582018190556006909101805460ff1916905560405184919033907fddf252ad1be2c89b69c2b068fc378daa952ba7f163c4a11628f55a4df523b3ef908390a4505050565b6001600160a01b03821661208857604051630b61174360e31b81526001600160a01b03831660048201526024016106ea565b6001600160a01b03838116600081815260056020908152604080832094871680845294825291829020805460ff191686151590811790915591519182527f17307eab39ab6107e8899845ad3d59bd9653f200f220920489ca2b5937696c31910160405180910390a3505050565b6120fd6122ca565b6001600160a01b038516815260408082018590528051600080825260208083018452606085019290925282518181529182019092529061214d565b60608152602001906001900390816121385790505b50608082015260a0810183905260208101828152600160c08301819052600880549182018155600052825160079091027ff3f7a9fe364faab93b216da50a3214154f22a0a2b415b23a84c8169e8b636ee3810180546001600160a01b039093166001600160a01b031990931692909217825591517ff3f7a9fe364faab93b216da50a3214154f22a0a2b415b23a84c8169e8b636ee4830155604083015183927ff3f7a9fe364faab93b216da50a3214154f22a0a2b415b23a84c8169e8b636ee501906122199082612bb8565b506060820151805161223591600384019160209091019061238b565b50608082015180516122519160048401916020909101906123f0565b5060a0820151600582015560c0909101516006909101805460ff19169115159190911790556001600160a01b038516600081815260096020908152604080832080546001818101835591855283852001889055938352600a909152812080549091906122be908490612d0d565b90915550505050505050565b6040518060e0016040528060006001600160a01b0316815260200160008152602001606081526020016060815260200160608152602001600081526020016000151581525090565b50805461231e906129f4565b6000825580601f1061232e575050565b601f01602090049060005260206000209081019061234c9190612442565b50565b508054600082559060005260206000209081019061234c9190612442565b508054600082559060005260206000209081019061234c9190612457565b8280548282559060005260206000209081019282156123e0579160200282015b828111156123e057825182546001600160a01b0319166001600160a01b039091161782556020909201916001909101906123ab565b506123ec929150612442565b5090565b828054828255906000526020600020908101928215612436579160200282015b8281111561243657825182906124269082612bb8565b5091602001919060010190612410565b506123ec929150612457565b5b808211156123ec5760008155600101612443565b808211156123ec57600061246b8282612312565b50600101612457565b60006020828403121561248657600080fd5b81356001600160e01b03198116811461198457600080fd5b60005b838110156124b95781810151838201526020016124a1565b50506000910152565b600081518084526124da81602086016020860161249e565b601f01601f19169290920160200192915050565b60208152600061198460208301846124c2565b60006020828403121561251357600080fd5b5035919050565b80356001600160a01b038116811461253157600080fd5b919050565b6000806040838503121561254957600080fd5b6125528361251a565b946020939093013593505050565b60008060006060848603121561257557600080fd5b61257e8461251a565b925061258c6020850161251a565b9150604084013590509250925092565b6000602082840312156125ae57600080fd5b6119848261251a565b600081518084526020808501808196508360051b8101915082860160005b858110156125ff5782840389526125ed8483516124c2565b988501989350908401906001016125d5565b5091979650505050505050565b600060018060a01b0380835116845260208084015181860152604084015160e0604087015261263e60e08701826124c2565b60608681015188830391890191909152805180835290840192506000918401905b808310156126815783518616825292840192600192909201919084019061265f565b5060808701519450878103608089015261269b81866125b7565b94505050505060a083015160a085015260c08301516126be60c086018215159052565b509392505050565b602081526000611984602083018461260c565b634e487b7160e01b600052604160045260246000fd5b600067ffffffffffffffff8084111561270a5761270a6126d9565b604051601f8501601f19908116603f01168101908282118183101715612732576127326126d9565b8160405280935085815286868601111561274b57600080fd5b858560208301376000602087830101525050509392505050565b600082601f83011261277657600080fd5b611984838335602085016126ef565b6000806040838503121561279857600080fd5b82359150602083013567ffffffffffffffff8111156127b657600080fd5b6127c285828601612765565b9150509250929050565b600080604083850312156127df57600080fd5b6127e88361251a565b9150602083013580151581146127fd57600080fd5b809150509250929050565b6000602080830181845280855180835260408601915060408160051b870101925083870160005b8281101561285d57603f1988860301845261284b85835161260c565b9450928501929085019060010161282f565b5092979650505050505050565b6000806000806080858703121561288057600080fd5b6128898561251a565b93506128976020860161251a565b925060408501359150606085013567ffffffffffffffff8111156128ba57600080fd5b8501601f810187136128cb57600080fd5b6128da878235602084016126ef565b91505092959194509250565b60018060a01b038616815284602082015260a06040820152600061290d60a08301866124c2565b6060830194909452509015156080909101529392505050565b60008060006060848603121561293b57600080fd5b6129448461251a565b9250602084013567ffffffffffffffff81111561296057600080fd5b61296c86828701612765565b925050604084013590509250925092565b6020808252825182820181905260009190848201906040850190845b818110156129b557835183529284019291840191600101612999565b50909695505050505050565b600080604083850312156129d457600080fd5b6129dd8361251a565b91506129eb6020840161251a565b90509250929050565b600181811c90821680612a0857607f821691505b60208210810361070e57634e487b7160e01b600052602260045260246000fd5b634e487b7160e01b600052603260045260246000fd5b6020808252603c908201527f4149204d6f64656c20646f65736e2774206578697374206f722068617320626560408201527f656e2072656d6f7665642066726f6d207468652073746f726167652e00000000606082015260800190565b60208082526027908201527f43616e27742070617373207a65726f206164647265737320617320616e20617260408201526667756d656e742160c81b606082015260800190565b6020808252601c908201527f496e646578206f7574206f662073746f7261676520626f756e64732100000000604082015260600190565b60208082526031908201527f4f6e6c79206f776e6572732061726520616c6c6f77656420746f20706572666f604082015270726d20746865206f7065726174696f6e2160781b606082015260800190565b601f821115610a7657600081815260208120601f850160051c81016020861015612b915750805b601f850160051c820191505b81811015612bb057828155600101612b9d565b505050505050565b815167ffffffffffffffff811115612bd257612bd26126d9565b612be681612be084546129f4565b84612b6a565b602080601f831160018114612c1b5760008415612c035750858301515b600019600386901b1c1916600185901b178555612bb0565b600085815260208120601f198616915b82811015612c4a57888601518255948401946001909101908401612c2b565b5085821015612c685787850151600019600388901b60f8161c191681555b5050505050600190811b01905550565b60018060a01b038416815282602082015260606040820152600061185760608301846124c2565b60008351612cb181846020880161249e565b835190830190612cc581836020880161249e565b01949350505050565b634e487b7160e01b600052603160045260246000fd5b634e487b7160e01b600052601160045260246000fd5b818103818111156105fa576105fa612ce4565b808201808211156105fa576105fa612ce456fea2646970667358221220beab7cff55bfe6fe960cf3ca76114709c4d5e6603e4750e9d2e05875f8123d0264736f6c63430008140033",
  "devdoc": {
    "errors": {
      "ERC721IncorrectOwner(address,uint256,address)": [
        {
          "details": "Indicates an error related to the ownership over a particular token. Used in transfers.",
          "params": {
            "owner": "Address of the current owner of a token.",
            "sender": "Address whose tokens are being transferred.",
            "tokenId": "Identifier number of a token."
          }
        }
      ],
      "ERC721InsufficientApproval(address,uint256)": [
        {
          "details": "Indicates a failure with the `operator`s approval. Used in transfers.",
          "params": {
            "operator": "Address that may be allowed to operate on tokens without being their owner.",
            "tokenId": "Identifier number of a token."
          }
        }
      ],
      "ERC721InvalidApprover(address)": [
        {
          "details": "Indicates a failure with the `approver` of a token to be approved. Used in approvals.",
          "params": {
            "approver": "Address initiating an approval operation."
          }
        }
      ],
      "ERC721InvalidOperator(address)": [
        {
          "details": "Indicates a failure with the `operator` to be approved. Used in approvals.",
          "params": {
            "operator": "Address that may be allowed to operate on tokens without being their owner."
          }
        }
      ],
      "ERC721InvalidOwner(address)": [
        {
          "details": "Indicates that an address can't be an owner. For example, `address(0)` is a forbidden owner in EIP-20. Used in balance queries.",
          "params": {
            "owner": "Address of the current owner of a token."
          }
        }
      ],
      "ERC721InvalidReceiver(address)": [
        {
          "details": "Indicates a failure with the token `receiver`. Used in transfers.",
          "params": {
            "receiver": "Address to which tokens are being transferred."
          }
        }
      ],
      "ERC721InvalidSender(address)": [
        {
          "details": "Indicates a failure with the token `sender`. Used in transfers.",
          "params": {
            "sender": "Address whose tokens are being transferred."
          }
        }
      ],
      "ERC721NonexistentToken(uint256)": [
        {
          "details": "Indicates a `tokenId` whose `owner` is the zero address.",
          "params": {
            "tokenId": "Identifier number of a token."
          }
        }
      ]
    },
    "events": {
      "Approval(address,address,uint256)": {
        "details": "Emitted when `owner` enables `approved` to manage the `tokenId` token."
      },
      "ApprovalForAll(address,address,bool)": {
        "details": "Emitted when `owner` enables or disables (`approved`) `operator` to manage all of its assets."
      },
      "Transfer(address,address,uint256)": {
        "details": "Emitted when `tokenId` token is transferred from `from` to `to`."
      }
    },
    "kind": "dev",
    "methods": {
      "isApprovedForAll(address,address)": {
        "details": "See {IERC721-isApprovedForAll}."
      },
      "name()": {
        "details": "See {IERC721Metadata-name}."
      },
      "safeTransferFrom(address,address,uint256)": {
        "details": "See {IERC721-safeTransferFrom}."
      },
      "setApprovalForAll(address,bool)": {
        "details": "See {IERC721-setApprovalForAll}."
      },
      "supportsInterface(bytes4)": {
        "details": "See {IERC165-supportsInterface}."
      },
      "symbol()": {
        "details": "See {IERC721Metadata-symbol}."
      }
    },
    "version": 1
  },
  "userdoc": {
    "kind": "user",
    "methods": {},
    "version": 1
  },
  "storageLayout": {
    "storage": [
      {
        "astId": 169,
        "contract": "contracts/aiModelNFT_v2.sol:AIModelNFT",
        "label": "_name",
        "offset": 0,
        "slot": "0",
        "type": "t_string_storage"
      },
      {
        "astId": 171,
        "contract": "contracts/aiModelNFT_v2.sol:AIModelNFT",
        "label": "_symbol",
        "offset": 0,
        "slot": "1",
        "type": "t_string_storage"
      },
      {
        "astId": 175,
        "contract": "contracts/aiModelNFT_v2.sol:AIModelNFT",
        "label": "_owners",
        "offset": 0,
        "slot": "2",
        "type": "t_mapping(t_uint256,t_address)"
      },
      {
        "astId": 179,
        "contract": "contracts/aiModelNFT_v2.sol:AIModelNFT",
        "label": "_balances",
        "offset": 0,
        "slot": "3",
        "type": "t_mapping(t_address,t_uint256)"
      },
      {
        "astId": 183,
        "contract": "contracts/aiModelNFT_v2.sol:AIModelNFT",
        "label": "_tokenApprovals",
        "offset": 0,
        "slot": "4",
        "type": "t_mapping(t_uint256,t_address)"
      },
      {
        "astId": 189,
        "contract": "contracts/aiModelNFT_v2.sol:AIModelNFT",
        "label": "_operatorApprovals",
        "offset": 0,
        "slot": "5",
        "type": "t_mapping(t_address,t_mapping(t_address,t_bool))"
      },
      {
        "astId": 3497,
        "contract": "contracts/aiModelNFT_v2.sol:AIModelNFT",
        "label": "_tokenIdCounter",
        "offset": 0,
        "slot": "6",
        "type": "t_uint256"
      },
      {
        "astId": 3499,
        "contract": "contracts/aiModelNFT_v2.sol:AIModelNFT",
        "label": "marketplaceAddr",
        "offset": 0,
        "slot": "7",
        "type": "t_address"
      },
      {
        "astId": 3520,
        "contract": "contracts/aiModelNFT_v2.sol:AIModelNFT",
        "label": "aiModelStorage",
        "offset": 0,
        "slot": "8",
        "type": "t_array(t_struct(AiModel)3516_storage)dyn_storage"
      },
      {
        "astId": 3525,
        "contract": "contracts/aiModelNFT_v2.sol:AIModelNFT",
        "label": "owners",
        "offset": 0,
        "slot": "9",
        "type": "t_mapping(t_address,t_array(t_uint256)dyn_storage)"
      },
      {
        "astId": 3529,
        "contract": "contracts/aiModelNFT_v2.sol:AIModelNFT",
        "label": "balances",
        "offset": 0,
        "slot": "10",
        "type": "t_mapping(t_address,t_uint256)"
      },
      {
        "astId": 3533,
        "contract": "contracts/aiModelNFT_v2.sol:AIModelNFT",
        "label": "tokenApprovals",
        "offset": 0,
        "slot": "11",
        "type": "t_mapping(t_uint256,t_address)"
      }
    ],
    "types": {
      "t_address": {
        "encoding": "inplace",
        "label": "address",
        "numberOfBytes": "20"
      },
      "t_array(t_address)dyn_storage": {
        "base": "t_address",
        "encoding": "dynamic_array",
        "label": "address[]",
        "numberOfBytes": "32"
      },
      "t_array(t_string_storage)dyn_storage": {
        "base": "t_string_storage",
        "encoding": "dynamic_array",
        "label": "string[]",
        "numberOfBytes": "32"
      },
      "t_array(t_struct(AiModel)3516_storage)dyn_storage": {
        "base": "t_struct(AiModel)3516_storage",
        "encoding": "dynamic_array",
        "label": "struct AIModelNFT.AiModel[]",
        "numberOfBytes": "32"
      },
      "t_array(t_uint256)dyn_storage": {
        "base": "t_uint256",
        "encoding": "dynamic_array",
        "label": "uint256[]",
        "numberOfBytes": "32"
      },
      "t_bool": {
        "encoding": "inplace",
        "label": "bool",
        "numberOfBytes": "1"
      },
      "t_mapping(t_address,t_array(t_uint256)dyn_storage)": {
        "encoding": "mapping",
        "key": "t_address",
        "label": "mapping(address => uint256[])",
        "numberOfBytes": "32",
        "value": "t_array(t_uint256)dyn_storage"
      },
      "t_mapping(t_address,t_bool)": {
        "encoding": "mapping",
        "key": "t_address",
        "label": "mapping(address => bool)",
        "numberOfBytes": "32",
        "value": "t_bool"
      },
      "t_mapping(t_address,t_mapping(t_address,t_bool))": {
        "encoding": "mapping",
        "key": "t_address",
        "label": "mapping(address => mapping(address => bool))",
        "numberOfBytes": "32",
        "value": "t_mapping(t_address,t_bool)"
      },
      "t_mapping(t_address,t_uint256)": {
        "encoding": "mapping",
        "key": "t_address",
        "label": "mapping(address => uint256)",
        "numberOfBytes": "32",
        "value": "t_uint256"
      },
      "t_mapping(t_uint256,t_address)": {
        "encoding": "mapping",
        "key": "t_uint256",
        "label": "mapping(uint256 => address)",
        "numberOfBytes": "32",
        "value": "t_address"
      },
      "t_string_storage": {
        "encoding": "bytes",
        "label": "string",
        "numberOfBytes": "32"
      },
      "t_struct(AiModel)3516_storage": {
        "encoding": "inplace",
        "label": "struct AIModelNFT.AiModel",
        "members": [
          {
            "astId": 3501,
            "contract": "contracts/aiModelNFT_v2.sol:AIModelNFT",
            "label": "owner",
            "offset": 0,
            "slot": "0",
            "type": "t_address"
          },
          {
            "astId": 3503,
            "contract": "contracts/aiModelNFT_v2.sol:AIModelNFT",
            "label": "watermarkId",
            "offset": 0,
            "slot": "1",
            "type": "t_uint256"
          },
          {
            "astId": 3505,
            "contract": "contracts/aiModelNFT_v2.sol:AIModelNFT",
            "label": "ipfsHash",
            "offset": 0,
            "slot": "2",
            "type": "t_string_storage"
          },
          {
            "astId": 3508,
            "contract": "contracts/aiModelNFT_v2.sol:AIModelNFT",
            "label": "previous_owners",
            "offset": 0,
            "slot": "3",
            "type": "t_array(t_address)dyn_storage"
          },
          {
            "astId": 3511,
            "contract": "contracts/aiModelNFT_v2.sol:AIModelNFT",
            "label": "previous_versions",
            "offset": 0,
            "slot": "4",
            "type": "t_array(t_string_storage)dyn_storage"
          },
          {
            "astId": 3513,
            "contract": "contracts/aiModelNFT_v2.sol:AIModelNFT",
            "label": "id",
            "offset": 0,
            "slot": "5",
            "type": "t_uint256"
          },
          {
            "astId": 3515,
            "contract": "contracts/aiModelNFT_v2.sol:AIModelNFT",
            "label": "valid",
            "offset": 0,
            "slot": "6",
            "type": "t_bool"
          }
        ],
        "numberOfBytes": "224"
      },
      "t_uint256": {
        "encoding": "inplace",
        "label": "uint256",
        "numberOfBytes": "32"
      }
    }
  }
}