{
  "address": "0xDB7e3086B8a233FE8bE93872F23Eee612Ca63ef3",
  "abi": [
    {
      "inputs": [
        {
          "internalType": "address payable",
          "name": "_nftContract",
          "type": "address"
        }
      ],
      "stateMutability": "nonpayable",
      "type": "constructor"
    },
    {
      "anonymous": false,
      "inputs": [
        {
          "indexed": false,
          "internalType": "uint256",
          "name": "AgentId",
          "type": "uint256"
        },
        {
          "indexed": false,
          "internalType": "address",
          "name": "Seller",
          "type": "address"
        },
        {
          "indexed": false,
          "internalType": "address",
          "name": "Buyer",
          "type": "address"
        },
        {
          "indexed": false,
          "internalType": "uint256",
          "name": "Price",
          "type": "uint256"
        }
      ],
      "name": "auctionEnded",
      "type": "event"
    },
    {
      "anonymous": false,
      "inputs": [
        {
          "indexed": false,
          "internalType": "uint256",
          "name": "AIagentId",
          "type": "uint256"
        },
        {
          "indexed": false,
          "internalType": "address",
          "name": "Seller",
          "type": "address"
        },
        {
          "indexed": false,
          "internalType": "uint256",
          "name": "StartAt",
          "type": "uint256"
        },
        {
          "indexed": false,
          "internalType": "uint256",
          "name": "ExpiresAt",
          "type": "uint256"
        },
        {
          "indexed": false,
          "internalType": "uint256",
          "name": "StartingPrice",
          "type": "uint256"
        },
        {
          "indexed": false,
          "internalType": "uint256",
          "name": "DiscountRate",
          "type": "uint256"
        },
        {
          "indexed": false,
          "internalType": "bool",
          "name": "onGoing",
          "type": "bool"
        }
      ],
      "name": "auctionStarted",
      "type": "event"
    },
    {
      "stateMutability": "payable",
      "type": "fallback"
    },
    {
      "inputs": [
        {
          "internalType": "uint256",
          "name": "_tokenId",
          "type": "uint256"
        }
      ],
      "name": "auctionActive",
      "outputs": [
        {
          "internalType": "bool",
          "name": "",
          "type": "bool"
        }
      ],
      "stateMutability": "view",
      "type": "function"
    },
    {
      "inputs": [
        {
          "internalType": "uint256",
          "name": "",
          "type": "uint256"
        }
      ],
      "name": "auctionStorage",
      "outputs": [
        {
          "internalType": "uint256",
          "name": "agentId",
          "type": "uint256"
        },
        {
          "internalType": "address",
          "name": "seller",
          "type": "address"
        },
        {
          "internalType": "uint256",
          "name": "startingPrice",
          "type": "uint256"
        },
        {
          "internalType": "uint256",
          "name": "startAt",
          "type": "uint256"
        },
        {
          "internalType": "uint256",
          "name": "expiresAt",
          "type": "uint256"
        },
        {
          "internalType": "uint256",
          "name": "discountRate",
          "type": "uint256"
        },
        {
          "internalType": "bool",
          "name": "onGoing",
          "type": "bool"
        }
      ],
      "stateMutability": "view",
      "type": "function"
    },
    {
      "inputs": [
        {
          "internalType": "uint256",
          "name": "",
          "type": "uint256"
        }
      ],
      "name": "auctions",
      "outputs": [
        {
          "internalType": "uint256",
          "name": "agentId",
          "type": "uint256"
        },
        {
          "internalType": "address",
          "name": "seller",
          "type": "address"
        },
        {
          "internalType": "uint256",
          "name": "startingPrice",
          "type": "uint256"
        },
        {
          "internalType": "uint256",
          "name": "startAt",
          "type": "uint256"
        },
        {
          "internalType": "uint256",
          "name": "expiresAt",
          "type": "uint256"
        },
        {
          "internalType": "uint256",
          "name": "discountRate",
          "type": "uint256"
        },
        {
          "internalType": "bool",
          "name": "onGoing",
          "type": "bool"
        }
      ],
      "stateMutability": "view",
      "type": "function"
    },
    {
      "inputs": [
        {
          "internalType": "uint256",
          "name": "_AIagentId",
          "type": "uint256"
        }
      ],
      "name": "buy",
      "outputs": [],
      "stateMutability": "payable",
      "type": "function"
    },
    {
      "inputs": [],
      "name": "getAddress",
      "outputs": [
        {
          "internalType": "address",
          "name": "",
          "type": "address"
        }
      ],
      "stateMutability": "view",
      "type": "function"
    },
    {
      "inputs": [
        {
          "internalType": "uint256",
          "name": "_id",
          "type": "uint256"
        }
      ],
      "name": "getAuction",
      "outputs": [
        {
          "components": [
            {
              "internalType": "uint256",
              "name": "agentId",
              "type": "uint256"
            },
            {
              "internalType": "address",
              "name": "seller",
              "type": "address"
            },
            {
              "internalType": "uint256",
              "name": "startingPrice",
              "type": "uint256"
            },
            {
              "internalType": "uint256",
              "name": "startAt",
              "type": "uint256"
            },
            {
              "internalType": "uint256",
              "name": "expiresAt",
              "type": "uint256"
            },
            {
              "internalType": "uint256",
              "name": "discountRate",
              "type": "uint256"
            },
            {
              "internalType": "bool",
              "name": "onGoing",
              "type": "bool"
            }
          ],
          "internalType": "struct DutchAuction.Auction",
          "name": "",
          "type": "tuple"
        }
      ],
      "stateMutability": "view",
      "type": "function"
    },
    {
      "inputs": [],
      "name": "getAuctionStorage",
      "outputs": [
        {
          "components": [
            {
              "internalType": "uint256",
              "name": "agentId",
              "type": "uint256"
            },
            {
              "internalType": "address",
              "name": "seller",
              "type": "address"
            },
            {
              "internalType": "uint256",
              "name": "startingPrice",
              "type": "uint256"
            },
            {
              "internalType": "uint256",
              "name": "startAt",
              "type": "uint256"
            },
            {
              "internalType": "uint256",
              "name": "expiresAt",
              "type": "uint256"
            },
            {
              "internalType": "uint256",
              "name": "discountRate",
              "type": "uint256"
            },
            {
              "internalType": "bool",
              "name": "onGoing",
              "type": "bool"
            }
          ],
          "internalType": "struct DutchAuction.Auction[]",
          "name": "",
          "type": "tuple[]"
        }
      ],
      "stateMutability": "view",
      "type": "function"
    },
    {
      "inputs": [
        {
          "internalType": "uint256",
          "name": "_AIagentId",
          "type": "uint256"
        }
      ],
      "name": "getPrice",
      "outputs": [
        {
          "internalType": "uint256",
          "name": "",
          "type": "uint256"
        }
      ],
      "stateMutability": "view",
      "type": "function"
    },
    {
      "inputs": [
        {
          "internalType": "uint256",
          "name": "_AIagentId",
          "type": "uint256"
        }
      ],
      "name": "getTimeLeft",
      "outputs": [
        {
          "internalType": "uint256",
          "name": "",
          "type": "uint256"
        }
      ],
      "stateMutability": "view",
      "type": "function"
    },
    {
      "inputs": [],
      "name": "nftContractAddr",
      "outputs": [
        {
          "internalType": "address",
          "name": "",
          "type": "address"
        }
      ],
      "stateMutability": "view",
      "type": "function"
    },
    {
      "inputs": [
        {
          "internalType": "uint256",
          "name": "_AIagentId",
          "type": "uint256"
        },
        {
          "internalType": "uint256",
          "name": "_startingPrice",
          "type": "uint256"
        },
        {
          "internalType": "uint256",
          "name": "_discountRate",
          "type": "uint256"
        },
        {
          "internalType": "uint256",
          "name": "_duration",
          "type": "uint256"
        }
      ],
      "name": "startAuction",
      "outputs": [],
      "stateMutability": "nonpayable",
      "type": "function"
    },
    {
      "stateMutability": "payable",
      "type": "receive"
    }
  ],
  "transactionHash": "0x2ea77d3e3e162d98105eb3557d5a9c2b99b54e70068f98b0dcb42b66d65c3bad",
  "args": [
    "0x13A59304be6413e0270C464De6941aEFB7e9e6a1"
  ],
  "numDeployments": 1,
  "solcInputHash": "e91ab50099dbdb140784cc429f4fa245",
  "bytecode": "0x608060405234801561001057600080fd5b5060405161119838038061119883398101604081905261002f9161005e565b600280546001600160a01b039092166001600160a01b031992831681179091556003805490921617905561008e565b60006020828403121561007057600080fd5b81516001600160a01b038116811461008757600080fd5b9392505050565b6110fb8061009d6000396000f3fe60806040526004361061009a5760003560e01c80638d2c4488116100615780638d2c4488146101c8578063ae793d11146101e8578063c3857efd1461020a578063d96a094a1461022a578063e75722301461023d578063e8c587631461026b57005b80632c23ec8e146100a357806338cc4831146100e0578063571a26a0146100f3578063644910c81461016b57806378bd79351461019b57005b366100a157005b005b3480156100af57600080fd5b506003546100c3906001600160a01b031681565b6040516001600160a01b0390911681526020015b60405180910390f35b3480156100ec57600080fd5b50306100c3565b3480156100ff57600080fd5b5061015861010e366004610ed6565b600060208190529081526040902080546001820154600283015460038401546004850154600586015460069096015494956001600160a01b03909416949293919290919060ff1687565b6040516100d79796959493929190610eef565b34801561017757600080fd5b5061018b610186366004610ed6565b61028b565b60405190151581526020016100d7565b3480156101a757600080fd5b506101bb6101b6366004610ed6565b6102b3565b6040516100d79190610f76565b3480156101d457600080fd5b506100a16101e3366004610f84565b61036d565b3480156101f457600080fd5b506101fd610727565b6040516100d79190610fb6565b34801561021657600080fd5b50610158610225366004610ed6565b6107d4565b6100a1610238366004610ed6565b610830565b34801561024957600080fd5b5061025d610258366004610ed6565b610d1e565b6040519081526020016100d7565b34801561027757600080fd5b5061025d610286366004610ed6565b610e93565b60008061029783610e93565b9050806000036102aa5750600092915050565b50600192915050565b6102fe6040518060e001604052806000815260200160006001600160a01b03168152602001600081526020016000815260200160008152602001600081526020016000151581525090565b5060009081526020818152604091829020825160e0810184528154815260018201546001600160a01b0316928101929092526002810154928201929092526003820154606082015260048201546080820152600582015460a082015260069091015460ff16151560c082015290565b60025460405163d00b4e6160e01b81523360048201819052602482018790529186916001600160a01b039091169063d00b4e6190604401602060405180830381865afa1580156103c1573d6000803e3d6000fd5b505050506040513d601f19601f820116820180604052508101906103e59190611004565b61045e576040805162461bcd60e51b81526020600482015260248101919091527f55736572206e6f7420617070726f76656420746f2061756374696f6e2074686560448201527f206d6f64656c206f7220746865206d6f64656c2069736e27742076616c69642160648201526084015b60405180910390fd5b600083116104ae5760405162461bcd60e51b815260206004820152601f60248201527f41756374696f6e206475726174696f6e2063616e2774206265207a65726f21006044820152606401610455565b6104b88385611043565b85101561051a5760405162461bcd60e51b815260206004820152602a60248201527f5374617274696e67207072696365206973206c657373207468616e206469736360448201526937bab73a103930ba329760b11b6064820152608401610455565b60008681526020819052604090208681556001810180546001600160a01b031916331790556002810186905542600390910181905561055a90849061105a565b600087815260208190526040908190206004810192835560058101878155600682018054600160ff19918216811783558054808201825585547fb10e2d527612073b26eecdfd717e6a320cf44b4afac2b0732d9fcbe2b7fa0cf6600790920291820155908501547fb10e2d527612073b26eecdfd717e6a320cf44b4afac2b0732d9fcbe2b7fa0cf7820180546001600160a01b039092166001600160a01b031990921691909117905560028501547fb10e2d527612073b26eecdfd717e6a320cf44b4afac2b0732d9fcbe2b7fa0cf88201556003909401547fb10e2d527612073b26eecdfd717e6a320cf44b4afac2b0732d9fcbe2b7fa0cf985015585547fb10e2d527612073b26eecdfd717e6a320cf44b4afac2b0732d9fcbe2b7fa0cfa85015591547fb10e2d527612073b26eecdfd717e6a320cf44b4afac2b0732d9fcbe2b7fa0cfb84015580547fb10e2d527612073b26eecdfd717e6a320cf44b4afac2b0732d9fcbe2b7fa0cfc909301805490921660ff9384161515179091559254925491517f4117914f4053c7d097ad88edcb1c7e40863a662759c40f83be087a508c0d8d5d93610717938b9333934293928d928d92911690610eef565b60405180910390a1505050505050565b60606001805480602002602001604051908101604052809291908181526020016000905b828210156107cb5760008481526020908190206040805160e08101825260078602909201805483526001808201546001600160a01b0316848601526002820154928401929092526003810154606084015260048101546080840152600581015460a08401526006015460ff16151560c0830152908352909201910161074b565b50505050905090565b600181815481106107e457600080fd5b600091825260209091206007909102018054600182015460028301546003840154600485015460058601546006909601549496506001600160a01b039093169491939092919060ff1687565b60025460405162f577a560e81b81526004810183905282916001600160a01b03169063f577a50090602401602060405180830381865afa158015610878573d6000803e3d6000fd5b505050506040513d601f19601f8201168201806040525081019061089c9190611004565b6108de5760405162461bcd60e51b81526020600482015260136024820152724d6f64656c206973206e6f742076616c69642160681b6044820152606401610455565b8160006108ea82610e93565b9050806000036109385760405162461bcd60e51b81526020600482015260196024820152782a34329030bab1ba34b7b71034b9b713ba1030b1ba34bb329760391b6044820152606401610455565b60008481526020819052604090206004015442106109985760405162461bcd60e51b815260206004820152601c60248201527f41756374696f6e2068617320616c726561647920657870697265642e000000006044820152606401610455565b60006109a385610d1e565b905080341015610a075760405162461bcd60e51b815260206004820152602960248201527f53686f756c642062696420686967686572207468616e20746865206375727265604482015268373a10383934b1b29760b91b6064820152608401610455565b6000610a13823461106d565b90508015610a4a57604051339082156108fc029083906000818181858888f19350505050158015610a48573d6000803e3d6000fd5b505b6000868152602081905260408082206001015490516001600160a01b039091169184156108fc02918591818181858888f19350505050158015610a91573d6000803e3d6000fd5b50600254600087815260208190526040908190206001015490516323b872dd60e01b81526001600160a01b039182166004820152336024820152604481018990529116906323b872dd90606401600060405180830381600087803b158015610af857600080fd5b505af1158015610b0c573d6000803e3d6000fd5b50506001549150600090505b81811015610c85578760018281548110610b3457610b34611080565b90600052602060002090600702016000015403610c73576001610b57818461106d565b81548110610b6757610b67611080565b906000526020600020906007020160018281548110610b8857610b88611080565b60009182526020909120825460079092020190815560018083015481830180546001600160a01b0319166001600160a01b039092169190911790556002808401549083015560038084015490830155600480840154908301556005808401549083015560069283015492909101805460ff909316151560ff1990931692909217909155805480610c1a57610c1a611096565b6000828152602081206007600019909301928302018181556001810180546001600160a01b03191690556002810182905560038101829055600481018290556005810191909155600601805460ff191690559055610c85565b80610c7d816110ac565b915050610b18565b506000878152602081815260408083208381556001810180546001600160a01b031916905560028101849055600381018490556004810184905560058101849055600601805460ff1916905580518a81529182019290925233818301526060810185905290517f025085d3e73f4f349e0d581affd181b0196b796205bb7acaa1fb1bb256ecc0969181900360800190a150505050505050565b60025460405162f577a560e81b81526004810183905260009183916001600160a01b039091169063f577a50090602401602060405180830381865afa158015610d6b573d6000803e3d6000fd5b505050506040513d601f19601f82011682018060405250810190610d8f9190611004565b610dd15760405162461bcd60e51b81526020600482015260136024820152724d6f64656c206973206e6f742076616c69642160681b6044820152606401610455565b826000610ddd82610e93565b905080600003610e2b5760405162461bcd60e51b81526020600482015260196024820152782a34329030bab1ba34b7b71034b9b713ba1030b1ba34bb329760391b6044820152606401610455565b600085815260208190526040812060030154610e47904261106d565b60008781526020819052604081206005015491925090610e68908390611043565b600088815260208190526040902060020154909150610e8890829061106d565b979650505050505050565b600081815260208190526040812060040154421115610eb457506000919050565b600082815260208190526040902060030154610ed0904261106d565b92915050565b600060208284031215610ee857600080fd5b5035919050565b9687526001600160a01b0395909516602087015260408601939093526060850191909152608084015260a0830152151560c082015260e00190565b805182526020808201516001600160a01b03169083015260408082015190830152606080820151908301526080808201519083015260a0808201519083015260c0908101511515910152565b60e08101610ed08284610f2a565b60008060008060808587031215610f9a57600080fd5b5050823594602084013594506040840135936060013592509050565b6020808252825182820181905260009190848201906040850190845b81811015610ff857610fe5838551610f2a565b9284019260e09290920191600101610fd2565b50909695505050505050565b60006020828403121561101657600080fd5b8151801515811461102657600080fd5b9392505050565b634e487b7160e01b600052601160045260246000fd5b8082028115828204841417610ed057610ed061102d565b80820180821115610ed057610ed061102d565b81810381811115610ed057610ed061102d565b634e487b7160e01b600052603260045260246000fd5b634e487b7160e01b600052603160045260246000fd5b6000600182016110be576110be61102d565b506001019056fea2646970667358221220903a6aa4ff0058ca64a5e82953b82e029a4d5dea98c8c9a0216940c40daf407164736f6c63430008140033",
  "devdoc": {
    "kind": "dev",
    "methods": {},
    "version": 1
  },
  "userdoc": {
    "kind": "user",
    "methods": {},
    "version": 1
  },
  "storageLayout": {
    "storage": [
      {
        "astId": 3605,
        "contract": "contracts/DutchAuction.sol:DutchAuction",
        "label": "auctions",
        "offset": 0,
        "slot": "0",
        "type": "t_mapping(t_uint256,t_struct(Auction)3600_storage)"
      },
      {
        "astId": 3609,
        "contract": "contracts/DutchAuction.sol:DutchAuction",
        "label": "auctionStorage",
        "offset": 0,
        "slot": "1",
        "type": "t_array(t_struct(Auction)3600_storage)dyn_storage"
      },
      {
        "astId": 3612,
        "contract": "contracts/DutchAuction.sol:DutchAuction",
        "label": "nftContract",
        "offset": 0,
        "slot": "2",
        "type": "t_contract(AIagentNFT)3581"
      },
      {
        "astId": 3614,
        "contract": "contracts/DutchAuction.sol:DutchAuction",
        "label": "nftContractAddr",
        "offset": 0,
        "slot": "3",
        "type": "t_address"
      }
    ],
    "types": {
      "t_address": {
        "encoding": "inplace",
        "label": "address",
        "numberOfBytes": "20"
      },
      "t_array(t_struct(Auction)3600_storage)dyn_storage": {
        "base": "t_struct(Auction)3600_storage",
        "encoding": "dynamic_array",
        "label": "struct DutchAuction.Auction[]",
        "numberOfBytes": "32"
      },
      "t_bool": {
        "encoding": "inplace",
        "label": "bool",
        "numberOfBytes": "1"
      },
      "t_contract(AIagentNFT)3581": {
        "encoding": "inplace",
        "label": "contract AIagentNFT",
        "numberOfBytes": "20"
      },
      "t_mapping(t_uint256,t_struct(Auction)3600_storage)": {
        "encoding": "mapping",
        "key": "t_uint256",
        "label": "mapping(uint256 => struct DutchAuction.Auction)",
        "numberOfBytes": "32",
        "value": "t_struct(Auction)3600_storage"
      },
      "t_struct(Auction)3600_storage": {
        "encoding": "inplace",
        "label": "struct DutchAuction.Auction",
        "members": [
          {
            "astId": 3587,
            "contract": "contracts/DutchAuction.sol:DutchAuction",
            "label": "agentId",
            "offset": 0,
            "slot": "0",
            "type": "t_uint256"
          },
          {
            "astId": 3589,
            "contract": "contracts/DutchAuction.sol:DutchAuction",
            "label": "seller",
            "offset": 0,
            "slot": "1",
            "type": "t_address"
          },
          {
            "astId": 3591,
            "contract": "contracts/DutchAuction.sol:DutchAuction",
            "label": "startingPrice",
            "offset": 0,
            "slot": "2",
            "type": "t_uint256"
          },
          {
            "astId": 3593,
            "contract": "contracts/DutchAuction.sol:DutchAuction",
            "label": "startAt",
            "offset": 0,
            "slot": "3",
            "type": "t_uint256"
          },
          {
            "astId": 3595,
            "contract": "contracts/DutchAuction.sol:DutchAuction",
            "label": "expiresAt",
            "offset": 0,
            "slot": "4",
            "type": "t_uint256"
          },
          {
            "astId": 3597,
            "contract": "contracts/DutchAuction.sol:DutchAuction",
            "label": "discountRate",
            "offset": 0,
            "slot": "5",
            "type": "t_uint256"
          },
          {
            "astId": 3599,
            "contract": "contracts/DutchAuction.sol:DutchAuction",
            "label": "onGoing",
            "offset": 0,
            "slot": "6",
            "type": "t_bool"
          }
        ],
        "numberOfBytes": "224"
      },
      "t_uint256": {
        "encoding": "inplace",
        "label": "uint256",
        "numberOfBytes": "32"
      }
    }
  }
}